{
  "transactions": [
    {
      "hash": "0xdd4463aa2ba39cf5ed209c4b01b9087ab05c4b9a0671b0715ce5afc7c52b49d7",
      "transactionType": "CREATE",
      "contractName": "MyERC20Token",
      "contractAddress": "0xd6c236bb988541b9f93908dc3661ee90b808b28a",
      "function": null,
      "arguments": [
        "Workshop Token",
        "pzqjamk4",
        "856267762000000000000000000"
      ],
      "transaction": {
        "from": "0x1b74ebed295355728172f74000b106ef61662fc8",
        "gas": "0x2223d6",
        "value": "0x0",
        "input": "0x608060405234801561000f575f5ffd5b506040516125ac3803806125ac833981810160405281019061003191906105cf565b3383838160039081610043919061085e565b508060049081610053919061085e565b5050505f73ffffffffffffffffffffffffffffffffffffffff168173ffffffffffffffffffffffffffffffffffffffff16036100c6575f6040517f1e4fbdf70000000000000000000000000000000000000000000000000000000081526004016100bd919061096c565b60405180910390fd5b6100d5816100ee60201b60201c565b506100e633826101b160201b60201c565b505050610a42565b5f60055f9054906101000a900473ffffffffffffffffffffffffffffffffffffffff1690508160055f6101000a81548173ffffffffffffffffffffffffffffffffffffffff021916908373ffffffffffffffffffffffffffffffffffffffff1602179055508173ffffffffffffffffffffffffffffffffffffffff168173ffffffffffffffffffffffffffffffffffffffff167f8be0079c531659141344cd1fd0a4f28419497f9722a3daafe3b4186f6b6457e060405160405180910390a35050565b5f73ffffffffffffffffffffffffffffffffffffffff168273ffffffffffffffffffffffffffffffffffffffff1603610221575f6040517fec442f05000000000000000000000000000000000000000000000000000000008152600401610218919061096c565b60405180910390fd5b6102325f838361023660201b60201c565b5050565b5f73ffffffffffffffffffffffffffffffffffffffff168373ffffffffffffffffffffffffffffffffffffffff1603610286578060025f82825461027a91906109b2565b92505081905550610354565b5f5f5f8573ffffffffffffffffffffffffffffffffffffffff1673ffffffffffffffffffffffffffffffffffffffff1681526020019081526020015f205490508181101561030f578381836040517fe450d38c000000000000000000000000000000000000000000000000000000008152600401610306939291906109f4565b60405180910390fd5b8181035f5f8673ffffffffffffffffffffffffffffffffffffffff1673ffffffffffffffffffffffffffffffffffffffff1681526020019081526020015f2081905550505b5f73ffffffffffffffffffffffffffffffffffffffff168273ffffffffffffffffffffffffffffffffffffffff160361039b578060025f82825403925050819055506103e5565b805f5f8473ffffffffffffffffffffffffffffffffffffffff1673ffffffffffffffffffffffffffffffffffffffff1681526020019081526020015f205f82825401925050819055505b8173ffffffffffffffffffffffffffffffffffffffff168373ffffffffffffffffffffffffffffffffffffffff167fddf252ad1be2c89b69c2b068fc378daa952ba7f163c4a11628f55a4df523b3ef836040516104429190610a29565b60405180910390a3505050565b5f604051905090565b5f5ffd5b5f5ffd5b5f5ffd5b5f5ffd5b5f601f19601f8301169050919050565b7f4e487b71000000000000000000000000000000000000000000000000000000005f52604160045260245ffd5b6104ae82610468565b810181811067ffffffffffffffff821117156104cd576104cc610478565b5b80604052505050565b5f6104df61044f565b90506104eb82826104a5565b919050565b5f67ffffffffffffffff82111561050a57610509610478565b5b61051382610468565b9050602081019050919050565b8281835e5f83830152505050565b5f61054061053b846104f0565b6104d6565b90508281526020810184848401111561055c5761055b610464565b5b610567848285610520565b509392505050565b5f82601f83011261058357610582610460565b5b815161059384826020860161052e565b91505092915050565b5f819050919050565b6105ae8161059c565b81146105b8575f5ffd5b50565b5f815190506105c9816105a5565b92915050565b5f5f5f606084860312156105e6576105e5610458565b5b5f84015167ffffffffffffffff8111156106035761060261045c565b5b61060f8682870161056f565b935050602084015167ffffffffffffffff8111156106305761062f61045c565b5b61063c8682870161056f565b925050604061064d868287016105bb565b9150509250925092565b5f81519050919050565b7f4e487b71000000000000000000000000000000000000000000000000000000005f52602260045260245ffd5b5f60028204905060018216806106a557607f821691505b6020821081036106b8576106b7610661565b5b50919050565b5f819050815f5260205f209050919050565b5f6020601f8301049050919050565b5f82821b905092915050565b5f6008830261071a7fffffffffffffffffffffffffffffffffffffffffffffffffffffffffffffffff826106df565b61072486836106df565b95508019841693508086168417925050509392505050565b5f819050919050565b5f61075f61075a6107558461059c565b61073c565b61059c565b9050919050565b5f819050919050565b61077883610745565b61078c61078482610766565b8484546106eb565b825550505050565b5f5f905090565b6107a3610794565b6107ae81848461076f565b505050565b5b818110156107d1576107c65f8261079b565b6001810190506107b4565b5050565b601f821115610816576107e7816106be565b6107f0846106d0565b810160208510156107ff578190505b61081361080b856106d0565b8301826107b3565b50505b505050565b5f82821c905092915050565b5f6108365f198460080261081b565b1980831691505092915050565b5f61084e8383610827565b9150826002028217905092915050565b61086782610657565b67ffffffffffffffff8111156108805761087f610478565b5b61088a825461068e565b6108958282856107d5565b5f60209050601f8311600181146108c6575f84156108b4578287015190505b6108be8582610843565b865550610925565b601f1984166108d4866106be565b5f5b828110156108fb578489015182556001820191506020850194506020810190506108d6565b868310156109185784890151610914601f891682610827565b8355505b6001600288020188555050505b505050505050565b5f73ffffffffffffffffffffffffffffffffffffffff82169050919050565b5f6109568261092d565b9050919050565b6109668161094c565b82525050565b5f60208201905061097f5f83018461095d565b92915050565b7f4e487b71000000000000000000000000000000000000000000000000000000005f52601160045260245ffd5b5f6109bc8261059c565b91506109c78361059c565b92508282019050808211156109df576109de610985565b5b92915050565b6109ee8161059c565b82525050565b5f606082019050610a075f83018661095d565b610a1460208301856109e5565b610a2160408301846109e5565b949350505050565b5f602082019050610a3c5f8301846109e5565b92915050565b611b5d80610a4f5f395ff3fe608060405260043610610184575f3560e01c806370a08231116100d0578063a639611d11610089578063d2d8cb6711610063578063d2d8cb6714610581578063d48a87f1146105ab578063dd62ed3e146105e7578063f2fde38b146106235761018b565b8063a639611d146104e1578063a9059cbb1461051d578063a914adce146105595761018b565b806370a08231146103e1578063715018a61461041d5780638da5cb5b146104335780638dd3fda91461045d57806395d89b4114610499578063a4821719146104c35761018b565b80632848aeaf1161013d57806353d6fd591161011757806353d6fd591461033d5780635e1c12cd146103655780635e962e051461038d5780636dbc4582146103b75761018b565b80632848aeaf146102ad578063313ce567146102e957806351fb012d146103135761018b565b8063040b65831461018f57806306fdde03146101b7578063095ea7b3146101e157806318160ddd1461021d57806321df0da71461024757806323b872dd146102715761018b565b3661018b57005b5f5ffd5b34801561019a575f5ffd5b506101b560048036038101906101b09190611593565b61064b565b005b3480156101c2575f5ffd5b506101cb61066f565b6040516101d8919061162e565b60405180910390f35b3480156101ec575f5ffd5b50610207600480360381019061020291906116db565b6106ff565b6040516102149190611728565b60405180910390f35b348015610228575f5ffd5b50610231610721565b60405161023e9190611750565b60405180910390f35b348015610252575f5ffd5b5061025b61072a565b6040516102689190611728565b60405180910390f35b34801561027c575f5ffd5b5061029760048036038101906102929190611769565b6107e3565b6040516102a49190611728565b60405180910390f35b3480156102b8575f5ffd5b506102d360048036038101906102ce91906117b9565b610811565b6040516102e09190611728565b60405180910390f35b3480156102f4575f5ffd5b506102fd61082e565b60405161030a91906117ff565b60405180910390f35b34801561031e575f5ffd5b50610327610836565b6040516103349190611728565b60405180910390f35b348015610348575f5ffd5b50610363600480360381019061035e9190611818565b610848565b005b348015610370575f5ffd5b5061038b60048036038101906103869190611593565b6108a8565b005b348015610398575f5ffd5b506103a16108cd565b6040516103ae9190611728565b60405180910390f35b3480156103c2575f5ffd5b506103cb6108e0565b6040516103d89190611750565b60405180910390f35b3480156103ec575f5ffd5b50610407600480360381019061040291906117b9565b6108ed565b6040516104149190611750565b60405180910390f35b348015610428575f5ffd5b50610431610932565b005b34801561043e575f5ffd5b50610447610945565b6040516104549190611865565b60405180910390f35b348015610468575f5ffd5b50610483600480360381019061047e91906117b9565b61096d565b6040516104909190611750565b60405180910390f35b3480156104a4575f5ffd5b506104ad6109b3565b6040516104ba919061162e565b60405180910390f35b6104cb610a43565b6040516104d89190611728565b60405180910390f35b3480156104ec575f5ffd5b50610507600480360381019061050291906117b9565b610c2b565b6040516105149190611750565b60405180910390f35b348015610528575f5ffd5b50610543600480360381019061053e91906116db565b610c40565b6040516105509190611728565b60405180910390f35b348015610564575f5ffd5b5061057f600480360381019061057a91906116db565b610c62565b005b34801561058c575f5ffd5b50610595610cb0565b6040516105a29190611750565b60405180910390f35b3480156105b6575f5ffd5b506105d160048036038101906105cc91906117b9565b610cb6565b6040516105de9190611728565b60405180910390f35b3480156105f2575f5ffd5b5061060d6004803603810190610608919061187e565b610d08565b60405161061a9190611750565b60405180910390f35b34801561062e575f5ffd5b50610649600480360381019061064491906117b9565b610d8a565b005b610653610e0e565b8060085f6101000a81548160ff02191690831515021790555050565b60606003805461067e906118e9565b80601f01602080910402602001604051908101604052809291908181526020018280546106aa906118e9565b80156106f55780601f106106cc576101008083540402835291602001916106f5565b820191905f5260205f20905b8154815290600101906020018083116106d857829003601f168201915b5050505050905090565b5f5f610709610e95565b9050610716818585610e9c565b600191505092915050565b5f600254905090565b5f60085f9054906101000a900460ff16156107c95760065f3373ffffffffffffffffffffffffffffffffffffffff1673ffffffffffffffffffffffffffffffffffffffff1681526020019081526020015f205f9054906101000a900460ff166107c8576040517f08c379a00000000000000000000000000000000000000000000000000000000081526004016107bf90611963565b60405180910390fd5b5b6107dc3368056bc75e2d63100000610eae565b6001905090565b5f5f6107ed610e95565b90506107fa858285610f2d565b610805858585610fbf565b60019150509392505050565b6006602052805f5260405f205f915054906101000a900460ff1681565b5f6012905090565b60085f9054906101000a900460ff1681565b610850610e0e565b8060065f8473ffffffffffffffffffffffffffffffffffffffff1673ffffffffffffffffffffffffffffffffffffffff1681526020019081526020015f205f6101000a81548160ff0219169083151502179055505050565b6108b0610e0e565b80600860016101000a81548160ff02191690831515021790555050565b600860019054906101000a900460ff1681565b68056bc75e2d6310000081565b5f5f5f8373ffffffffffffffffffffffffffffffffffffffff1673ffffffffffffffffffffffffffffffffffffffff1681526020019081526020015f20549050919050565b61093a610e0e565b6109435f6110af565b565b5f60055f9054906101000a900473ffffffffffffffffffffffffffffffffffffffff16905090565b5f60075f8373ffffffffffffffffffffffffffffffffffffffff1673ffffffffffffffffffffffffffffffffffffffff1681526020019081526020015f20549050919050565b6060600480546109c2906118e9565b80601f01602080910402602001604051908101604052809291908181526020018280546109ee906118e9565b8015610a395780601f10610a1057610100808354040283529160200191610a39565b820191905f5260205f20905b815481529060010190602001808311610a1c57829003601f168201915b5050505050905090565b5f5f3411610a86576040517f08c379a0000000000000000000000000000000000000000000000000000000008152600401610a7d906119cb565b60405180910390fd5b600860019054906101000a900460ff1615610c0c5760065f3373ffffffffffffffffffffffffffffffffffffffff1673ffffffffffffffffffffffffffffffffffffffff1681526020019081526020015f205f9054906101000a900460ff16610b24576040517f08c379a0000000000000000000000000000000000000000000000000000000008152600401610b1b90611963565b60405180910390fd5b5f60075f3373ffffffffffffffffffffffffffffffffffffffff1673ffffffffffffffffffffffffffffffffffffffff1681526020019081526020015f205411610ba3576040517f08c379a0000000000000000000000000000000000000000000000000000000008152600401610b9a90611a33565b60405180910390fd5b5f60075f3373ffffffffffffffffffffffffffffffffffffffff1673ffffffffffffffffffffffffffffffffffffffff1681526020019081526020015f20549050610c0633826103e834610bf79190611a7e565b610c019190611a7e565b610eae565b50610c24565b610c23336103e834610c1e9190611a7e565b610eae565b5b6001905090565b6007602052805f5260405f205f915090505481565b5f5f610c4a610e95565b9050610c57818585610fbf565b600191505092915050565b610c6a610e0e565b8060075f8473ffffffffffffffffffffffffffffffffffffffff1673ffffffffffffffffffffffffffffffffffffffff1681526020019081526020015f20819055505050565b6103e881565b5f60065f8373ffffffffffffffffffffffffffffffffffffffff1673ffffffffffffffffffffffffffffffffffffffff1681526020019081526020015f205f9054906101000a900460ff169050919050565b5f60015f8473ffffffffffffffffffffffffffffffffffffffff1673ffffffffffffffffffffffffffffffffffffffff1681526020019081526020015f205f8373ffffffffffffffffffffffffffffffffffffffff1673ffffffffffffffffffffffffffffffffffffffff1681526020019081526020015f2054905092915050565b610d92610e0e565b5f73ffffffffffffffffffffffffffffffffffffffff168173ffffffffffffffffffffffffffffffffffffffff1603610e02575f6040517f1e4fbdf7000000000000000000000000000000000000000000000000000000008152600401610df99190611865565b60405180910390fd5b610e0b816110af565b50565b610e16610e95565b73ffffffffffffffffffffffffffffffffffffffff16610e34610945565b73ffffffffffffffffffffffffffffffffffffffff1614610e9357610e57610e95565b6040517f118cdaa7000000000000000000000000000000000000000000000000000000008152600401610e8a9190611865565b60405180910390fd5b565b5f33905090565b610ea98383836001611172565b505050565b5f73ffffffffffffffffffffffffffffffffffffffff168273ffffffffffffffffffffffffffffffffffffffff1603610f1e575f6040517fec442f05000000000000000000000000000000000000000000000000000000008152600401610f159190611865565b60405180910390fd5b610f295f8383611341565b5050565b5f610f388484610d08565b90507fffffffffffffffffffffffffffffffffffffffffffffffffffffffffffffffff8114610fb95781811015610faa578281836040517ffb8f41b2000000000000000000000000000000000000000000000000000000008152600401610fa193929190611abf565b60405180910390fd5b610fb884848484035f611172565b5b50505050565b5f73ffffffffffffffffffffffffffffffffffffffff168373ffffffffffffffffffffffffffffffffffffffff160361102f575f6040517f96c6fd1e0000000000000000000000000000000000000000000000000000000081526004016110269190611865565b60405180910390fd5b5f73ffffffffffffffffffffffffffffffffffffffff168273ffffffffffffffffffffffffffffffffffffffff160361109f575f6040517fec442f050000000000000000000000000000000000000000000000000000000081526004016110969190611865565b60405180910390fd5b6110aa838383611341565b505050565b5f60055f9054906101000a900473ffffffffffffffffffffffffffffffffffffffff1690508160055f6101000a81548173ffffffffffffffffffffffffffffffffffffffff021916908373ffffffffffffffffffffffffffffffffffffffff1602179055508173ffffffffffffffffffffffffffffffffffffffff168173ffffffffffffffffffffffffffffffffffffffff167f8be0079c531659141344cd1fd0a4f28419497f9722a3daafe3b4186f6b6457e060405160405180910390a35050565b5f73ffffffffffffffffffffffffffffffffffffffff168473ffffffffffffffffffffffffffffffffffffffff16036111e2575f6040517fe602df050000000000000000000000000000000000000000000000000000000081526004016111d99190611865565b60405180910390fd5b5f73ffffffffffffffffffffffffffffffffffffffff168373ffffffffffffffffffffffffffffffffffffffff1603611252575f6040517f94280d620000000000000000000000000000000000000000000000000000000081526004016112499190611865565b60405180910390fd5b8160015f8673ffffffffffffffffffffffffffffffffffffffff1673ffffffffffffffffffffffffffffffffffffffff1681526020019081526020015f205f8573ffffffffffffffffffffffffffffffffffffffff1673ffffffffffffffffffffffffffffffffffffffff1681526020019081526020015f2081905550801561133b578273ffffffffffffffffffffffffffffffffffffffff168473ffffffffffffffffffffffffffffffffffffffff167f8c5be1e5ebec7d5bd14f71427d1e84f3dd0314c0f7b2291e5b200ac8c7c3b925846040516113329190611750565b60405180910390a35b50505050565b5f73ffffffffffffffffffffffffffffffffffffffff168373ffffffffffffffffffffffffffffffffffffffff1603611391578060025f8282546113859190611af4565b9250508190555061145f565b5f5f5f8573ffffffffffffffffffffffffffffffffffffffff1673ffffffffffffffffffffffffffffffffffffffff1681526020019081526020015f205490508181101561141a578381836040517fe450d38c00000000000000000000000000000000000000000000000000000000815260040161141193929190611abf565b60405180910390fd5b8181035f5f8673ffffffffffffffffffffffffffffffffffffffff1673ffffffffffffffffffffffffffffffffffffffff1681526020019081526020015f2081905550505b5f73ffffffffffffffffffffffffffffffffffffffff168273ffffffffffffffffffffffffffffffffffffffff16036114a6578060025f82825403925050819055506114f0565b805f5f8473ffffffffffffffffffffffffffffffffffffffff1673ffffffffffffffffffffffffffffffffffffffff1681526020019081526020015f205f82825401925050819055505b8173ffffffffffffffffffffffffffffffffffffffff168373ffffffffffffffffffffffffffffffffffffffff167fddf252ad1be2c89b69c2b068fc378daa952ba7f163c4a11628f55a4df523b3ef8360405161154d9190611750565b60405180910390a3505050565b5f5ffd5b5f8115159050919050565b6115728161155e565b811461157c575f5ffd5b50565b5f8135905061158d81611569565b92915050565b5f602082840312156115a8576115a761155a565b5b5f6115b58482850161157f565b91505092915050565b5f81519050919050565b5f82825260208201905092915050565b8281835e5f83830152505050565b5f601f19601f8301169050919050565b5f611600826115be565b61160a81856115c8565b935061161a8185602086016115d8565b611623816115e6565b840191505092915050565b5f6020820190508181035f83015261164681846115f6565b905092915050565b5f73ffffffffffffffffffffffffffffffffffffffff82169050919050565b5f6116778261164e565b9050919050565b6116878161166d565b8114611691575f5ffd5b50565b5f813590506116a28161167e565b92915050565b5f819050919050565b6116ba816116a8565b81146116c4575f5ffd5b50565b5f813590506116d5816116b1565b92915050565b5f5f604083850312156116f1576116f061155a565b5b5f6116fe85828601611694565b925050602061170f858286016116c7565b9150509250929050565b6117228161155e565b82525050565b5f60208201905061173b5f830184611719565b92915050565b61174a816116a8565b82525050565b5f6020820190506117635f830184611741565b92915050565b5f5f5f606084860312156117805761177f61155a565b5b5f61178d86828701611694565b935050602061179e86828701611694565b92505060406117af868287016116c7565b9150509250925092565b5f602082840312156117ce576117cd61155a565b5b5f6117db84828501611694565b91505092915050565b5f60ff82169050919050565b6117f9816117e4565b82525050565b5f6020820190506118125f8301846117f0565b92915050565b5f5f6040838503121561182e5761182d61155a565b5b5f61183b85828601611694565b925050602061184c8582860161157f565b9150509250929050565b61185f8161166d565b82525050565b5f6020820190506118785f830184611856565b92915050565b5f5f604083850312156118945761189361155a565b5b5f6118a185828601611694565b92505060206118b285828601611694565b9150509250929050565b7f4e487b71000000000000000000000000000000000000000000000000000000005f52602260045260245ffd5b5f600282049050600182168061190057607f821691505b602082108103611913576119126118bc565b5b50919050565b7f4e6f742077686974656c697374656400000000000000000000000000000000005f82015250565b5f61194d600f836115c8565b915061195882611919565b602082019050919050565b5f6020820190508181035f83015261197a81611941565b9050919050565b7f53656e64204554480000000000000000000000000000000000000000000000005f82015250565b5f6119b56008836115c8565b91506119c082611981565b602082019050919050565b5f6020820190508181035f8301526119e2816119a9565b9050919050565b7f4e6f2074696572000000000000000000000000000000000000000000000000005f82015250565b5f611a1d6007836115c8565b9150611a28826119e9565b602082019050919050565b5f6020820190508181035f830152611a4a81611a11565b9050919050565b7f4e487b71000000000000000000000000000000000000000000000000000000005f52601160045260245ffd5b5f611a88826116a8565b9150611a93836116a8565b9250828202611aa1816116a8565b91508282048414831517611ab857611ab7611a51565b5b5092915050565b5f606082019050611ad25f830186611856565b611adf6020830185611741565b611aec6040830184611741565b949350505050565b5f611afe826116a8565b9150611b09836116a8565b9250828201905080821115611b2157611b20611a51565b5b9291505056fea26469706673582212209122131cff41faeddacf06f9050e28ca3812120d02128d0a52efe293c165a0be64736f6c634300081e0033000000000000000000000000000000000000000000000000000000000000006000000000000000000000000000000000000000000000000000000000000000a0000000000000000000000000000000000000000002c449c063b54ab1c8880000000000000000000000000000000000000000000000000000000000000000000e576f726b73686f7020546f6b656e0000000000000000000000000000000000000000000000000000000000000000000000000000000000000000000000000008707a716a616d6b34000000000000000000000000000000000000000000000000",
        "nonce": "0x1b",
        "chainId": "0xaa36a7"
      },
      "additionalContracts": [],
      "isFixedGasLimit": false
    },
    {
      "hash": "0x0a76b9dbc6887f8242efea4ced9d3c20ddff7b5b28403cfb28dcb94e04301dd3",
      "transactionType": "CALL",
      "contractName": null,
      "contractAddress": "0x05a644d6d9bbd85861ff927245aac13bd56e6d57",
      "function": "submitExercice(address)",
      "arguments": [
        "0xD6C236Bb988541B9f93908dC3661ee90b808b28A"
      ],
      "transaction": {
        "from": "0x1b74ebed295355728172f74000b106ef61662fc8",
        "to": "0x05a644d6d9bbd85861ff927245aac13bd56e6d57",
        "gas": "0x18ac0",
        "value": "0x0",
        "input": "0x2236d353000000000000000000000000d6c236bb988541b9f93908dc3661ee90b808b28a",
        "nonce": "0x1c",
        "chainId": "0xaa36a7"
      },
      "additionalContracts": [],
      "isFixedGasLimit": false
    },
    {
      "hash": "0xc3d18da22ff583684c2e4e1cb9041dfe885b5f3f19e6eaef5a9ff9786d1011cc",
      "transactionType": "CALL",
      "contractName": null,
      "contractAddress": "0x05a644d6d9bbd85861ff927245aac13bd56e6d57",
      "function": "ex2_testErc20TickerAndSupply()",
      "arguments": [],
      "transaction": {
        "from": "0x1b74ebed295355728172f74000b106ef61662fc8",
        "to": "0x05a644d6d9bbd85861ff927245aac13bd56e6d57",
        "gas": "0x2b5d4",
        "value": "0x0",
        "input": "0xe8b4cb56",
        "nonce": "0x1d",
        "chainId": "0xaa36a7"
      },
      "additionalContracts": [],
      "isFixedGasLimit": false
    },
    {
      "hash": "0x98c26ffd54a303ecb16888043b2a3bb23a27391edc505fd0b745807a889d9744",
      "transactionType": "CALL",
      "contractName": null,
      "contractAddress": "0x05a644d6d9bbd85861ff927245aac13bd56e6d57",
      "function": "ex3_testGetToken()",
      "arguments": [],
      "transaction": {
        "from": "0x1b74ebed295355728172f74000b106ef61662fc8",
        "to": "0x05a644d6d9bbd85861ff927245aac13bd56e6d57",
        "gas": "0x2628d",
        "value": "0x0",
        "input": "0x3bc40956",
        "nonce": "0x1e",
        "chainId": "0xaa36a7"
      },
      "additionalContracts": [],
      "isFixedGasLimit": false
    },
    {
      "hash": "0x2e90581d5b47a698aa9877ff6fb811d8f9ae00ab5843eeb6316794b26def81f4",
      "transactionType": "CALL",
      "contractName": null,
      "contractAddress": "0x05a644d6d9bbd85861ff927245aac13bd56e6d57",
      "function": null,
      "arguments": null,
      "transaction": {
        "from": "0x1b74ebed295355728172f74000b106ef61662fc8",
        "to": "0x05a644d6d9bbd85861ff927245aac13bd56e6d57",
        "gas": "0x7834",
        "value": "0x38d7ea4c68000",
        "input": "0x",
        "nonce": "0x1f",
        "chainId": "0xaa36a7"
      },
      "additionalContracts": [],
      "isFixedGasLimit": false
    },
    {
      "hash": "0xd50e59299c9215386a1cd30fff34c2688b74cf3550318d7964508e51fab392f1",
      "transactionType": "CALL",
      "contractName": null,
      "contractAddress": "0x05a644d6d9bbd85861ff927245aac13bd56e6d57",
      "function": "ex4_testBuyToken()",
      "arguments": [],
      "transaction": {
        "from": "0x1b74ebed295355728172f74000b106ef61662fc8",
        "to": "0x05a644d6d9bbd85861ff927245aac13bd56e6d57",
        "gas": "0x25301",
        "value": "0x0",
        "input": "0xb32b559f",
        "nonce": "0x20",
        "chainId": "0xaa36a7"
      },
      "additionalContracts": [],
      "isFixedGasLimit": false
    },
    {
      "hash": "0x1c917b1761cf5dbaca7715db85ad6643639df581ca698bf0f440414bb322bcef",
      "transactionType": "CALL",
      "contractName": "MyERC20Token",
      "contractAddress": "0xd6c236bb988541b9f93908dc3661ee90b808b28a",
      "function": "enableWhitelist(bool)",
      "arguments": [
        "true"
      ],
      "transaction": {
        "from": "0x1b74ebed295355728172f74000b106ef61662fc8",
        "to": "0xd6c236bb988541b9f93908dc3661ee90b808b28a",
        "gas": "0xf886",
        "value": "0x0",
        "input": "0x040b65830000000000000000000000000000000000000000000000000000000000000001",
        "nonce": "0x21",
        "chainId": "0xaa36a7"
      },
      "additionalContracts": [],
      "isFixedGasLimit": false
    },
    {
      "hash": "0xab3227a3a9cebbd390fcb110dfe866bbeb9d9843a99149150c4b78b68dad89aa",
      "transactionType": "CALL",
      "contractName": null,
      "contractAddress": "0x05a644d6d9bbd85861ff927245aac13bd56e6d57",
      "function": "ex5_testDenyListing()",
      "arguments": [],
      "transaction": {
        "from": "0x1b74ebed295355728172f74000b106ef61662fc8",
        "to": "0x05a644d6d9bbd85861ff927245aac13bd56e6d57",
        "gas": "0x1a36c",
        "value": "0x0",
        "input": "0xec65b16e",
        "nonce": "0x22",
        "chainId": "0xaa36a7"
      },
      "additionalContracts": [],
      "isFixedGasLimit": false
    },
    {
      "hash": "0xc44d1e46afdaa59a7796903e43d2f1723925804844d49c67af4f7c5d9b5907fd",
      "transactionType": "CALL",
      "contractName": "MyERC20Token",
      "contractAddress": "0xd6c236bb988541b9f93908dc3661ee90b808b28a",
      "function": "setWhitelist(address,bool)",
      "arguments": [
        "0x05A644d6d9BBd85861ff927245aaC13bd56e6d57",
        "true"
      ],
      "transaction": {
        "from": "0x1b74ebed295355728172f74000b106ef61662fc8",
        "to": "0xd6c236bb988541b9f93908dc3661ee90b808b28a",
        "gas": "0xfc46",
        "value": "0x0",
        "input": "0x53d6fd5900000000000000000000000005a644d6d9bbd85861ff927245aac13bd56e6d570000000000000000000000000000000000000000000000000000000000000001",
        "nonce": "0x23",
        "chainId": "0xaa36a7"
      },
      "additionalContracts": [],
      "isFixedGasLimit": false
    },
    {
      "hash": "0x48688e8ace16bc4e84c73356aad90859a08700b9dfbc0e37968a84edc395ca5b",
      "transactionType": "CALL",
      "contractName": null,
      "contractAddress": "0x05a644d6d9bbd85861ff927245aac13bd56e6d57",
      "function": "ex6_testAllowListing()",
      "arguments": [],
      "transaction": {
        "from": "0x1b74ebed295355728172f74000b106ef61662fc8",
        "to": "0x05a644d6d9bbd85861ff927245aac13bd56e6d57",
        "gas": "0x23489",
        "value": "0x0",
        "input": "0x0af78edc",
        "nonce": "0x24",
        "chainId": "0xaa36a7"
      },
      "additionalContracts": [],
      "isFixedGasLimit": false
    },
    {
      "hash": "0xa92c8104aaf19a68486883f9b5690225482b4df88e682013fad4129aef19c45c",
      "transactionType": "CALL",
      "contractName": "MyERC20Token",
      "contractAddress": "0xd6c236bb988541b9f93908dc3661ee90b808b28a",
      "function": "setWhitelist(address,bool)",
      "arguments": [
        "0x05A644d6d9BBd85861ff927245aaC13bd56e6d57",
        "false"
      ],
      "transaction": {
        "from": "0x1b74ebed295355728172f74000b106ef61662fc8",
        "to": "0xd6c236bb988541b9f93908dc3661ee90b808b28a",
        "gas": "0x860c",
        "value": "0x0",
        "input": "0x53d6fd5900000000000000000000000005a644d6d9bbd85861ff927245aac13bd56e6d570000000000000000000000000000000000000000000000000000000000000000",
        "nonce": "0x25",
        "chainId": "0xaa36a7"
      },
      "additionalContracts": [],
      "isFixedGasLimit": false
    },
    {
      "hash": "0xfdc42261c0492d1def244efe8353570e14f0b74bba8e119c6184311fceb0cc5d",
      "transactionType": "CALL",
      "contractName": "MyERC20Token",
      "contractAddress": "0xd6c236bb988541b9f93908dc3661ee90b808b28a",
      "function": "enableWhitelist(bool)",
      "arguments": [
        "false"
      ],
      "transaction": {
        "from": "0x1b74ebed295355728172f74000b106ef61662fc8",
        "to": "0xd6c236bb988541b9f93908dc3661ee90b808b28a",
        "gas": "0x824c",
        "value": "0x0",
        "input": "0x040b65830000000000000000000000000000000000000000000000000000000000000000",
        "nonce": "0x26",
        "chainId": "0xaa36a7"
      },
      "additionalContracts": [],
      "isFixedGasLimit": false
    },
    {
      "hash": "0x97c4b997717bdfe158b42b7a2a97e4e4e138066386b6db947a119ccae2375846",
      "transactionType": "CALL",
      "contractName": "MyERC20Token",
      "contractAddress": "0xd6c236bb988541b9f93908dc3661ee90b808b28a",
      "function": "enableTier(bool)",
      "arguments": [
        "true"
      ],
      "transaction": {
        "from": "0x1b74ebed295355728172f74000b106ef61662fc8",
        "to": "0xd6c236bb988541b9f93908dc3661ee90b808b28a",
        "gas": "0xf908",
        "value": "0x0",
        "input": "0x5e1c12cd0000000000000000000000000000000000000000000000000000000000000001",
        "nonce": "0x27",
        "chainId": "0xaa36a7"
      },
      "additionalContracts": [],
      "isFixedGasLimit": false
    },
    {
      "hash": "0x6e5c5566ddf6e0b94983e5a865e7993751bd3cbb17be1897918855b74cdc0d16",
      "transactionType": "CALL",
      "contractName": null,
      "contractAddress": "0x05a644d6d9bbd85861ff927245aac13bd56e6d57",
      "function": "ex7_testDenyListing()",
      "arguments": [],
      "transaction": {
        "from": "0x1b74ebed295355728172f74000b106ef61662fc8",
        "to": "0x05a644d6d9bbd85861ff927245aac13bd56e6d57",
        "gas": "0x1f91f",
        "value": "0x0",
        "input": "0xa6c611d9",
        "nonce": "0x28",
        "chainId": "0xaa36a7"
      },
      "additionalContracts": [],
      "isFixedGasLimit": false
    },
    {
      "hash": "0xcba65bb14d8334497767bdc662777ecdea7c49cab78c500b9d849dcfd1feff17",
      "transactionType": "CALL",
      "contractName": "MyERC20Token",
      "contractAddress": "0xd6c236bb988541b9f93908dc3661ee90b808b28a",
      "function": "setWhitelist(address,bool)",
      "arguments": [
        "0x05A644d6d9BBd85861ff927245aaC13bd56e6d57",
        "true"
      ],
      "transaction": {
        "from": "0x1b74ebed295355728172f74000b106ef61662fc8",
        "to": "0xd6c236bb988541b9f93908dc3661ee90b808b28a",
        "gas": "0xfc46",
        "value": "0x0",
        "input": "0x53d6fd5900000000000000000000000005a644d6d9bbd85861ff927245aac13bd56e6d570000000000000000000000000000000000000000000000000000000000000001",
        "nonce": "0x29",
        "chainId": "0xaa36a7"
      },
      "additionalContracts": [],
      "isFixedGasLimit": false
    },
    {
      "hash": "0x51ae8f55a4954aaa65dfc90ca382468376096821e87c6b23218eea7f42a97b91",
      "transactionType": "CALL",
      "contractName": "MyERC20Token",
      "contractAddress": "0xd6c236bb988541b9f93908dc3661ee90b808b28a",
      "function": "setTier(address,uint256)",
      "arguments": [
        "0x05A644d6d9BBd85861ff927245aaC13bd56e6d57",
        "1"
      ],
      "transaction": {
        "from": "0x1b74ebed295355728172f74000b106ef61662fc8",
        "to": "0xd6c236bb988541b9f93908dc3661ee90b808b28a",
        "gas": "0xfc33",
        "value": "0x0",
        "input": "0xa914adce00000000000000000000000005a644d6d9bbd85861ff927245aac13bd56e6d570000000000000000000000000000000000000000000000000000000000000001",
        "nonce": "0x2a",
        "chainId": "0xaa36a7"
      },
      "additionalContracts": [],
      "isFixedGasLimit": false
    },
    {
      "hash": "0x076b3957e94af7e2e14bfeaaa08ca3ecd6fdee7b0fb3fcd05d045115517c97a8",
      "transactionType": "CALL",
      "contractName": null,
      "contractAddress": "0x05a644d6d9bbd85861ff927245aac13bd56e6d57",
      "function": "ex8_testTier1Listing()",
      "arguments": [],
      "transaction": {
        "from": "0x1b74ebed295355728172f74000b106ef61662fc8",
        "to": "0x05a644d6d9bbd85861ff927245aac13bd56e6d57",
        "gas": "0x33a45",
        "value": "0x0",
        "input": "0x16f4b99f",
        "nonce": "0x2b",
        "chainId": "0xaa36a7"
      },
      "additionalContracts": [],
      "isFixedGasLimit": false
    },
    {
      "hash": "0xc502534cecdb881388cf01a8439fddb22446cc02fe51c841b2737c9599bd708b",
      "transactionType": "CALL",
      "contractName": "MyERC20Token",
      "contractAddress": "0xd6c236bb988541b9f93908dc3661ee90b808b28a",
      "function": "setTier(address,uint256)",
      "arguments": [
        "0x05A644d6d9BBd85861ff927245aaC13bd56e6d57",
        "2"
      ],
      "transaction": {
        "from": "0x1b74ebed295355728172f74000b106ef61662fc8",
        "to": "0xd6c236bb988541b9f93908dc3661ee90b808b28a",
        "gas": "0xa958",
        "value": "0x0",
        "input": "0xa914adce00000000000000000000000005a644d6d9bbd85861ff927245aac13bd56e6d570000000000000000000000000000000000000000000000000000000000000002",
        "nonce": "0x2c",
        "chainId": "0xaa36a7"
      },
      "additionalContracts": [],
      "isFixedGasLimit": false
    },
    {
      "hash": "0x193a1e7e75f9d01b1d0723e62389316960aecf3314ea37f6b16f9763668ae615",
      "transactionType": "CALL",
      "contractName": null,
      "contractAddress": "0x05a644d6d9bbd85861ff927245aac13bd56e6d57",
      "function": "ex9_testTier2Listing()",
      "arguments": [],
      "transaction": {
        "from": "0x1b74ebed295355728172f74000b106ef61662fc8",
        "to": "0x05a644d6d9bbd85861ff927245aac13bd56e6d57",
        "gas": "0x2a20c",
        "value": "0x0",
        "input": "0xccd64d7d",
        "nonce": "0x2d",
        "chainId": "0xaa36a7"
      },
      "additionalContracts": [],
      "isFixedGasLimit": false
    }
  ],
  "receipts": [
    {
      "status": "0x1",
      "cumulativeGasUsed": "0x10d6aa6",
      "logs": [
        {
          "address": "0xd6c236bb988541b9f93908dc3661ee90b808b28a",
          "topics": [
            "0x8be0079c531659141344cd1fd0a4f28419497f9722a3daafe3b4186f6b6457e0",
            "0x0000000000000000000000000000000000000000000000000000000000000000",
            "0x0000000000000000000000001b74ebed295355728172f74000b106ef61662fc8"
          ],
          "data": "0x",
          "blockHash": "0x289cb4bd3a36081e2c075502184f8d11b6efe5ffa1ec91075862caa1b72aa1d5",
          "blockNumber": "0x945e40",
          "blockTimestamp": "0x69296d24",
          "transactionHash": "0xc3d18da22ff583684c2e4e1cb9041dfe885b5f3f19e6eaef5a9ff9786d1011cc",
          "transactionIndex": "0x48",
          "logIndex": "0x71",
          "removed": false
        },
        {
          "address": "0xd6c236bb988541b9f93908dc3661ee90b808b28a",
          "topics": [
            "0xddf252ad1be2c89b69c2b068fc378daa952ba7f163c4a11628f55a4df523b3ef",
            "0x0000000000000000000000000000000000000000000000000000000000000000",
            "0x0000000000000000000000001b74ebed295355728172f74000b106ef61662fc8"
          ],
          "data": "0x000000000000000000000000000000000000000002c449c063b54ab1c8880000",
          "blockHash": "0x289cb4bd3a36081e2c075502184f8d11b6efe5ffa1ec91075862caa1b72aa1d5",
          "blockNumber": "0x945e40",
          "blockTimestamp": "0x69296d24",
          "transactionHash": "0xc3d18da22ff583684c2e4e1cb9041dfe885b5f3f19e6eaef5a9ff9786d1011cc",
          "transactionIndex": "0x48",
          "logIndex": "0x72",
          "removed": false
        }
      ],
      "logsBloom": "0x00000000000000000000000000000000000002000000000000800100000000000000000000000000000000000000000000000000000000000000000000000000000000000000000000040008001000000001000000000000000000000000000000000000020000000000000000000800000000000000000000000010000000400000000000000000000000000000000000000000000000000000000000000000000000000000000400000000000000000000000000000000000100000000000000000002000000000000000000000000000000000000000000000000000020000000000000000000000000000000000000000000000000000000000000000000",
      "type": "0x2",
      "transactionHash": "0xc3d18da22ff583684c2e4e1cb9041dfe885b5f3f19e6eaef5a9ff9786d1011cc",
      "transactionIndex": "0x48",
      "blockHash": "0x289cb4bd3a36081e2c075502184f8d11b6efe5ffa1ec91075862caa1b72aa1d5",
      "blockNumber": "0x945e40",
      "gasUsed": "0x1a42f4",
      "effectiveGasPrice": "0xf424d",
      "from": "0x1b74ebed295355728172f74000b106ef61662fc8",
      "to": null,
      "contractAddress": "0xd6c236bb988541b9f93908dc3661ee90b808b28a"
    },
    {
      "status": "0x1",
      "cumulativeGasUsed": "0x1138644",
      "logs": [],
      "logsBloom": "0x00000000000000000000000000000000000000000000000000000000000000000000000000000000000000000000000000000000000000000000000000000000000000000000000000000000000000000000000000000000000000000000000000000000000000000000000000000000000000000000000000000000000000000000000000000000000000000000000000000000000000000000000000000000000000000000000000000000000000000000000000000000000000000000000000000000000000000000000000000000000000000000000000000000000000000000000000000000000000000000000000000000000000000000000000000000",
      "type": "0x2",
      "transactionHash": "0x0a76b9dbc6887f8242efea4ced9d3c20ddff7b5b28403cfb28dcb94e04301dd3",
      "transactionIndex": "0x4c",
      "blockHash": "0x289cb4bd3a36081e2c075502184f8d11b6efe5ffa1ec91075862caa1b72aa1d5",
      "blockNumber": "0x945e40",
      "gasUsed": "0x10deb",
      "effectiveGasPrice": "0xf424d",
      "from": "0x1b74ebed295355728172f74000b106ef61662fc8",
      "to": "0x05a644d6d9bbd85861ff927245aac13bd56e6d57",
      "contractAddress": null
    },
    {
      "status": "0x1",
      "cumulativeGasUsed": "0x11560ae",
      "logs": [
        {
          "address": "0xd6c236bb988541b9f93908dc3661ee90b808b28a",
          "topics": [
            "0x8c5be1e5ebec7d5bd14f71427d1e84f3dd0314c0f7b2291e5b200ac8c7c3b925",
            "0x00000000000000000000000005a644d6d9bbd85861ff927245aac13bd56e6d57",
            "0x0000000000000000000000001b74ebed295355728172f74000b106ef61662fc8"
          ],
          "data": "0x000000000000000000000000000000000000000000000000000000000000000a",
          "blockHash": "0x289cb4bd3a36081e2c075502184f8d11b6efe5ffa1ec91075862caa1b72aa1d5",
          "blockNumber": "0x945e40",
          "blockTimestamp": "0x69296d24",
          "transactionHash": "0xdd4463aa2ba39cf5ed209c4b01b9087ab05c4b9a0671b0715ce5afc7c52b49d7",
          "transactionIndex": "0x4d",
          "logIndex": "0x76",
          "removed": false
        },
        {
          "address": "0xe9b502e84d3e0a6dedb58aa61612dcb543d5eb42",
          "topics": [
            "0xddf252ad1be2c89b69c2b068fc378daa952ba7f163c4a11628f55a4df523b3ef",
            "0x0000000000000000000000000000000000000000000000000000000000000000",
            "0x0000000000000000000000001b74ebed295355728172f74000b106ef61662fc8"
          ],
          "data": "0x0000000000000000000000000000000000000000000000001bc16d674ec80000",
          "blockHash": "0x289cb4bd3a36081e2c075502184f8d11b6efe5ffa1ec91075862caa1b72aa1d5",
          "blockNumber": "0x945e40",
          "blockTimestamp": "0x69296d24",
          "transactionHash": "0xdd4463aa2ba39cf5ed209c4b01b9087ab05c4b9a0671b0715ce5afc7c52b49d7",
          "transactionIndex": "0x4d",
          "logIndex": "0x77",
          "removed": false
        }
      ],
      "logsBloom": "0x00000000000000000000000000008000000002000000000000000100000100000000000000000000000000000000000000000000000000000000000000200000000000000000000000040008001000000000000000000000000000000000000000000000020000000000000000000800000000000000000000000010000000000040000000000000000000000000000000000000000008000000000000000000020000000000000400000000000000000000000000000000000100000000000000000002000000000000000000000000000000000000000000000000000020000010000000000000000000000000006000000000000000000000000000000000",
      "type": "0x2",
      "transactionHash": "0xdd4463aa2ba39cf5ed209c4b01b9087ab05c4b9a0671b0715ce5afc7c52b49d7",
      "transactionIndex": "0x4d",
      "blockHash": "0x289cb4bd3a36081e2c075502184f8d11b6efe5ffa1ec91075862caa1b72aa1d5",
      "blockNumber": "0x945e40",
      "gasUsed": "0x1da6a",
      "effectiveGasPrice": "0xf424d",
      "from": "0x1b74ebed295355728172f74000b106ef61662fc8",
      "to": "0x05a644d6d9bbd85861ff927245aac13bd56e6d57",
      "contractAddress": null
    },
    {
      "status": "0x1",
      "cumulativeGasUsed": "0x1170227",
      "logs": [
        {
          "address": "0xd6c236bb988541b9f93908dc3661ee90b808b28a",
          "topics": [
            "0xddf252ad1be2c89b69c2b068fc378daa952ba7f163c4a11628f55a4df523b3ef",
            "0x0000000000000000000000000000000000000000000000000000000000000000",
            "0x00000000000000000000000005a644d6d9bbd85861ff927245aac13bd56e6d57"
          ],
          "data": "0x0000000000000000000000000000000000000000000000056bc75e2d63100000",
          "blockHash": "0x289cb4bd3a36081e2c075502184f8d11b6efe5ffa1ec91075862caa1b72aa1d5",
          "blockNumber": "0x945e40",
          "blockTimestamp": "0x69296d24",
          "transactionHash": "0x076b3957e94af7e2e14bfeaaa08ca3ecd6fdee7b0fb3fcd05d045115517c97a8",
          "transactionIndex": "0x4e",
          "logIndex": "0x78",
          "removed": false
        },
        {
          "address": "0xe9b502e84d3e0a6dedb58aa61612dcb543d5eb42",
          "topics": [
            "0xddf252ad1be2c89b69c2b068fc378daa952ba7f163c4a11628f55a4df523b3ef",
            "0x0000000000000000000000000000000000000000000000000000000000000000",
            "0x0000000000000000000000001b74ebed295355728172f74000b106ef61662fc8"
          ],
          "data": "0x0000000000000000000000000000000000000000000000001bc16d674ec80000",
          "blockHash": "0x289cb4bd3a36081e2c075502184f8d11b6efe5ffa1ec91075862caa1b72aa1d5",
          "blockNumber": "0x945e40",
          "blockTimestamp": "0x69296d24",
          "transactionHash": "0x076b3957e94af7e2e14bfeaaa08ca3ecd6fdee7b0fb3fcd05d045115517c97a8",
          "transactionIndex": "0x4e",
          "logIndex": "0x79",
          "removed": false
        }
      ],
      "logsBloom": "0x00000000000000000000000000008000000002000000000000000100000100000000000000000000000000000000000000000000000000000000000000000000000000000000000000040008001000000000000000000000000000000000000000000000020000000000000000000800000000000000000000000010000000000040000000000000000000000000000000000000000008000000000000000000000000000000000400000000000000000000000000000000000100000000000000000002000000000000000000000000000000000000000000000000000020000000000000000000000000000000006000000000000000000000000000000000",
      "type": "0x2",
      "transactionHash": "0x076b3957e94af7e2e14bfeaaa08ca3ecd6fdee7b0fb3fcd05d045115517c97a8",
      "transactionIndex": "0x4e",
      "blockHash": "0x289cb4bd3a36081e2c075502184f8d11b6efe5ffa1ec91075862caa1b72aa1d5",
      "blockNumber": "0x945e40",
      "gasUsed": "0x1a179",
      "effectiveGasPrice": "0xf424d",
      "from": "0x1b74ebed295355728172f74000b106ef61662fc8",
      "to": "0x05a644d6d9bbd85861ff927245aac13bd56e6d57",
      "contractAddress": null
    },
    {
      "status": "0x1",
      "cumulativeGasUsed": "0x1175458",
      "logs": [],
      "logsBloom": "0x00000000000000000000000000000000000000000000000000000000000000000000000000000000000000000000000000000000000000000000000000000000000000000000000000000000000000000000000000000000000000000000000000000000000000000000000000000000000000000000000000000000000000000000000000000000000000000000000000000000000000000000000000000000000000000000000000000000000000000000000000000000000000000000000000000000000000000000000000000000000000000000000000000000000000000000000000000000000000000000000000000000000000000000000000000000",
      "type": "0x2",
      "transactionHash": "0x2e90581d5b47a698aa9877ff6fb811d8f9ae00ab5843eeb6316794b26def81f4",
      "transactionIndex": "0x4f",
      "blockHash": "0x289cb4bd3a36081e2c075502184f8d11b6efe5ffa1ec91075862caa1b72aa1d5",
      "blockNumber": "0x945e40",
      "gasUsed": "0x5231",
      "effectiveGasPrice": "0xf424d",
      "from": "0x1b74ebed295355728172f74000b106ef61662fc8",
      "to": "0x05a644d6d9bbd85861ff927245aac13bd56e6d57",
      "contractAddress": null
    },
    {
      "status": "0x1",
      "cumulativeGasUsed": "0x119031e",
      "logs": [
        {
          "address": "0xd6c236bb988541b9f93908dc3661ee90b808b28a",
          "topics": [
            "0xddf252ad1be2c89b69c2b068fc378daa952ba7f163c4a11628f55a4df523b3ef",
            "0x0000000000000000000000000000000000000000000000000000000000000000",
            "0x00000000000000000000000005a644d6d9bbd85861ff927245aac13bd56e6d57"
          ],
          "data": "0x000000000000000000000000000000000000000000000000016345785d8a0000",
          "blockHash": "0x289cb4bd3a36081e2c075502184f8d11b6efe5ffa1ec91075862caa1b72aa1d5",
          "blockNumber": "0x945e40",
          "blockTimestamp": "0x69296d24",
          "transactionHash": "0xfdc42261c0492d1def244efe8353570e14f0b74bba8e119c6184311fceb0cc5d",
          "transactionIndex": "0x50",
          "logIndex": "0x7a",
          "removed": false
        },
        {
          "address": "0xd6c236bb988541b9f93908dc3661ee90b808b28a",
          "topics": [
            "0xddf252ad1be2c89b69c2b068fc378daa952ba7f163c4a11628f55a4df523b3ef",
            "0x0000000000000000000000000000000000000000000000000000000000000000",
            "0x00000000000000000000000005a644d6d9bbd85861ff927245aac13bd56e6d57"
          ],
          "data": "0x0000000000000000000000000000000000000000000000000429d069189e0000",
          "blockHash": "0x289cb4bd3a36081e2c075502184f8d11b6efe5ffa1ec91075862caa1b72aa1d5",
          "blockNumber": "0x945e40",
          "blockTimestamp": "0x69296d24",
          "transactionHash": "0xfdc42261c0492d1def244efe8353570e14f0b74bba8e119c6184311fceb0cc5d",
          "transactionIndex": "0x50",
          "logIndex": "0x7b",
          "removed": false
        },
        {
          "address": "0xe9b502e84d3e0a6dedb58aa61612dcb543d5eb42",
          "topics": [
            "0xddf252ad1be2c89b69c2b068fc378daa952ba7f163c4a11628f55a4df523b3ef",
            "0x0000000000000000000000000000000000000000000000000000000000000000",
            "0x0000000000000000000000001b74ebed295355728172f74000b106ef61662fc8"
          ],
          "data": "0x0000000000000000000000000000000000000000000000001bc16d674ec80000",
          "blockHash": "0x289cb4bd3a36081e2c075502184f8d11b6efe5ffa1ec91075862caa1b72aa1d5",
          "blockNumber": "0x945e40",
          "blockTimestamp": "0x69296d24",
          "transactionHash": "0xfdc42261c0492d1def244efe8353570e14f0b74bba8e119c6184311fceb0cc5d",
          "transactionIndex": "0x50",
          "logIndex": "0x7c",
          "removed": false
        }
      ],
      "logsBloom": "0x00000000000000000000000000008000000002000000000000000100000100000000000000000000000000000000000000000000000000000000000000000000000000000000000000040008001000000000000000000000000000000000000000000000020000000000000000000800000000000000000000000010000000000040000000000000000000000000000000000000000008000000000000000000000000000000000400000000000000000000000000000000000100000000000000000002000000000000000000000000000000000000000000000000000020000000000000000000000000000000006000000000000000000000000000000000",
      "type": "0x2",
      "transactionHash": "0xfdc42261c0492d1def244efe8353570e14f0b74bba8e119c6184311fceb0cc5d",
      "transactionIndex": "0x50",
      "blockHash": "0x289cb4bd3a36081e2c075502184f8d11b6efe5ffa1ec91075862caa1b72aa1d5",
      "blockNumber": "0x945e40",
      "gasUsed": "0x1aec6",
      "effectiveGasPrice": "0xf424d",
      "from": "0x1b74ebed295355728172f74000b106ef61662fc8",
      "to": "0x05a644d6d9bbd85861ff927245aac13bd56e6d57",
      "contractAddress": null
    },
    {
      "status": "0x1",
      "cumulativeGasUsed": "0x119b70c",
      "logs": [],
      "logsBloom": "0x00000000000000000000000000000000000000000000000000000000000000000000000000000000000000000000000000000000000000000000000000000000000000000000000000000000000000000000000000000000000000000000000000000000000000000000000000000000000000000000000000000000000000000000000000000000000000000000000000000000000000000000000000000000000000000000000000000000000000000000000000000000000000000000000000000000000000000000000000000000000000000000000000000000000000000000000000000000000000000000000000000000000000000000000000000000",
      "type": "0x2",
      "transactionHash": "0x1c917b1761cf5dbaca7715db85ad6643639df581ca698bf0f440414bb322bcef",
      "transactionIndex": "0x51",
      "blockHash": "0x289cb4bd3a36081e2c075502184f8d11b6efe5ffa1ec91075862caa1b72aa1d5",
      "blockNumber": "0x945e40",
      "gasUsed": "0xb3ee",
      "effectiveGasPrice": "0xf424d",
      "from": "0x1b74ebed295355728172f74000b106ef61662fc8",
      "to": "0xd6c236bb988541b9f93908dc3661ee90b808b28a",
      "contractAddress": null
    },
    {
      "status": "0x1",
      "cumulativeGasUsed": "0x11ae6b4",
      "logs": [
        {
          "address": "0xe9b502e84d3e0a6dedb58aa61612dcb543d5eb42",
          "topics": [
            "0xddf252ad1be2c89b69c2b068fc378daa952ba7f163c4a11628f55a4df523b3ef",
            "0x0000000000000000000000000000000000000000000000000000000000000000",
            "0x0000000000000000000000001b74ebed295355728172f74000b106ef61662fc8"
          ],
          "data": "0x0000000000000000000000000000000000000000000000000de0b6b3a7640000",
          "blockHash": "0x289cb4bd3a36081e2c075502184f8d11b6efe5ffa1ec91075862caa1b72aa1d5",
          "blockNumber": "0x945e40",
          "blockTimestamp": "0x69296d24",
          "transactionHash": "0xd50e59299c9215386a1cd30fff34c2688b74cf3550318d7964508e51fab392f1",
          "transactionIndex": "0x52",
          "logIndex": "0x7d",
          "removed": false
        }
      ],
      "logsBloom": "0x00000000000000000000000000008000000002000000000000000100000100000000000000000000000000000000000000000000000000000000000000000000000000000000000000000008000000000000000000000000000000000000000000000000020000000000000000000800000000000000000000000010000000000000000000000000000000000000000000000000000000000000000000000000000000000000000000000000000000000000000000000000000100000000000000000002000000000000000000000000000000000000000000000000000020000000000000000000000000000000004000000000000000000000000000000000",
      "type": "0x2",
      "transactionHash": "0xd50e59299c9215386a1cd30fff34c2688b74cf3550318d7964508e51fab392f1",
      "transactionIndex": "0x52",
      "blockHash": "0x289cb4bd3a36081e2c075502184f8d11b6efe5ffa1ec91075862caa1b72aa1d5",
      "blockNumber": "0x945e40",
      "gasUsed": "0x12fa8",
      "effectiveGasPrice": "0xf424d",
      "from": "0x1b74ebed295355728172f74000b106ef61662fc8",
      "to": "0x05a644d6d9bbd85861ff927245aac13bd56e6d57",
      "contractAddress": null
    },
    {
      "status": "0x1",
      "cumulativeGasUsed": "0x11b9d59",
      "logs": [],
      "logsBloom": "0x00000000000000000000000000000000000000000000000000000000000000000000000000000000000000000000000000000000000000000000000000000000000000000000000000000000000000000000000000000000000000000000000000000000000000000000000000000000000000000000000000000000000000000000000000000000000000000000000000000000000000000000000000000000000000000000000000000000000000000000000000000000000000000000000000000000000000000000000000000000000000000000000000000000000000000000000000000000000000000000000000000000000000000000000000000000",
      "type": "0x2",
      "transactionHash": "0x97c4b997717bdfe158b42b7a2a97e4e4e138066386b6db947a119ccae2375846",
      "transactionIndex": "0x53",
      "blockHash": "0x289cb4bd3a36081e2c075502184f8d11b6efe5ffa1ec91075862caa1b72aa1d5",
      "blockNumber": "0x945e40",
      "gasUsed": "0xb6a5",
      "effectiveGasPrice": "0xf424d",
      "from": "0x1b74ebed295355728172f74000b106ef61662fc8",
      "to": "0xd6c236bb988541b9f93908dc3661ee90b808b28a",
      "contractAddress": null
    },
    {
      "status": "0x1",
      "cumulativeGasUsed": "0x11d1f5b",
      "logs": [
        {
          "address": "0xd6c236bb988541b9f93908dc3661ee90b808b28a",
          "topics": [
            "0xddf252ad1be2c89b69c2b068fc378daa952ba7f163c4a11628f55a4df523b3ef",
            "0x0000000000000000000000000000000000000000000000000000000000000000",
            "0x00000000000000000000000005a644d6d9bbd85861ff927245aac13bd56e6d57"
          ],
          "data": "0x0000000000000000000000000000000000000000000000056bc75e2d63100000",
          "blockHash": "0x289cb4bd3a36081e2c075502184f8d11b6efe5ffa1ec91075862caa1b72aa1d5",
          "blockNumber": "0x945e40",
          "blockTimestamp": "0x69296d24",
          "transactionHash": "0x98c26ffd54a303ecb16888043b2a3bb23a27391edc505fd0b745807a889d9744",
          "transactionIndex": "0x54",
          "logIndex": "0x7e",
          "removed": false
        },
        {
          "address": "0xe9b502e84d3e0a6dedb58aa61612dcb543d5eb42",
          "topics": [
            "0xddf252ad1be2c89b69c2b068fc378daa952ba7f163c4a11628f55a4df523b3ef",
            "0x0000000000000000000000000000000000000000000000000000000000000000",
            "0x0000000000000000000000001b74ebed295355728172f74000b106ef61662fc8"
          ],
          "data": "0x0000000000000000000000000000000000000000000000001bc16d674ec80000",
          "blockHash": "0x289cb4bd3a36081e2c075502184f8d11b6efe5ffa1ec91075862caa1b72aa1d5",
          "blockNumber": "0x945e40",
          "blockTimestamp": "0x69296d24",
          "transactionHash": "0x98c26ffd54a303ecb16888043b2a3bb23a27391edc505fd0b745807a889d9744",
          "transactionIndex": "0x54",
          "logIndex": "0x7f",
          "removed": false
        }
      ],
      "logsBloom": "0x00000000000000000000000000008000000002000000000000000100000100000000000000000000000000000000000000000000000000000000000000000000000000000000000000040008001000000000000000000000000000000000000000000000020000000000000000000800000000000000000000000010000000000040000000000000000000000000000000000000000008000000000000000000000000000000000400000000000000000000000000000000000100000000000000000002000000000000000000000000000000000000000000000000000020000000000000000000000000000000006000000000000000000000000000000000",
      "type": "0x2",
      "transactionHash": "0x98c26ffd54a303ecb16888043b2a3bb23a27391edc505fd0b745807a889d9744",
      "transactionIndex": "0x54",
      "blockHash": "0x289cb4bd3a36081e2c075502184f8d11b6efe5ffa1ec91075862caa1b72aa1d5",
      "blockNumber": "0x945e40",
      "gasUsed": "0x18202",
      "effectiveGasPrice": "0xf424d",
      "from": "0x1b74ebed295355728172f74000b106ef61662fc8",
      "to": "0x05a644d6d9bbd85861ff927245aac13bd56e6d57",
      "contractAddress": null
    },
    {
      "status": "0x1",
      "cumulativeGasUsed": "0x11d8068",
      "logs": [],
      "logsBloom": "0x00000000000000000000000000000000000000000000000000000000000000000000000000000000000000000000000000000000000000000000000000000000000000000000000000000000000000000000000000000000000000000000000000000000000000000000000000000000000000000000000000000000000000000000000000000000000000000000000000000000000000000000000000000000000000000000000000000000000000000000000000000000000000000000000000000000000000000000000000000000000000000000000000000000000000000000000000000000000000000000000000000000000000000000000000000000",
      "type": "0x2",
      "transactionHash": "0x6e5c5566ddf6e0b94983e5a865e7993751bd3cbb17be1897918855b74cdc0d16",
      "transactionIndex": "0x55",
      "blockHash": "0x289cb4bd3a36081e2c075502184f8d11b6efe5ffa1ec91075862caa1b72aa1d5",
      "blockNumber": "0x945e40",
      "gasUsed": "0x610d",
      "effectiveGasPrice": "0xf424d",
      "from": "0x1b74ebed295355728172f74000b106ef61662fc8",
      "to": "0xd6c236bb988541b9f93908dc3661ee90b808b28a",
      "contractAddress": null
    },
    {
      "status": "0x1",
      "cumulativeGasUsed": "0x11ddebe",
      "logs": [],
      "logsBloom": "0x00000000000000000000000000000000000000000000000000000000000000000000000000000000000000000000000000000000000000000000000000000000000000000000000000000000000000000000000000000000000000000000000000000000000000000000000000000000000000000000000000000000000000000000000000000000000000000000000000000000000000000000000000000000000000000000000000000000000000000000000000000000000000000000000000000000000000000000000000000000000000000000000000000000000000000000000000000000000000000000000000000000000000000000000000000000",
      "type": "0x2",
      "transactionHash": "0xab3227a3a9cebbd390fcb110dfe866bbeb9d9843a99149150c4b78b68dad89aa",
      "transactionIndex": "0x56",
      "blockHash": "0x289cb4bd3a36081e2c075502184f8d11b6efe5ffa1ec91075862caa1b72aa1d5",
      "blockNumber": "0x945e40",
      "gasUsed": "0x5e56",
      "effectiveGasPrice": "0xf424d",
      "from": "0x1b74ebed295355728172f74000b106ef61662fc8",
      "to": "0xd6c236bb988541b9f93908dc3661ee90b808b28a",
      "contractAddress": null
    },
    {
      "status": "0x1",
      "cumulativeGasUsed": "0x11e930a",
      "logs": [],
      "logsBloom": "0x00000000000000000000000000000000000000000000000000000000000000000000000000000000000000000000000000000000000000000000000000000000000000000000000000000000000000000000000000000000000000000000000000000000000000000000000000000000000000000000000000000000000000000000000000000000000000000000000000000000000000000000000000000000000000000000000000000000000000000000000000000000000000000000000000000000000000000000000000000000000000000000000000000000000000000000000000000000000000000000000000000000000000000000000000000000",
      "type": "0x2",
      "transactionHash": "0xc502534cecdb881388cf01a8439fddb22446cc02fe51c841b2737c9599bd708b",
      "transactionIndex": "0x57",
      "blockHash": "0x289cb4bd3a36081e2c075502184f8d11b6efe5ffa1ec91075862caa1b72aa1d5",
      "blockNumber": "0x945e40",
      "gasUsed": "0xb44c",
      "effectiveGasPrice": "0xf424d",
      "from": "0x1b74ebed295355728172f74000b106ef61662fc8",
      "to": "0xd6c236bb988541b9f93908dc3661ee90b808b28a",
      "contractAddress": null
    },
    {
      "status": "0x1",
      "cumulativeGasUsed": "0x11fec6c",
      "logs": [
        {
          "address": "0xe9b502e84d3e0a6dedb58aa61612dcb543d5eb42",
          "topics": [
            "0xddf252ad1be2c89b69c2b068fc378daa952ba7f163c4a11628f55a4df523b3ef",
            "0x0000000000000000000000000000000000000000000000000000000000000000",
            "0x0000000000000000000000001b74ebed295355728172f74000b106ef61662fc8"
          ],
          "data": "0x0000000000000000000000000000000000000000000000000de0b6b3a7640000",
          "blockHash": "0x289cb4bd3a36081e2c075502184f8d11b6efe5ffa1ec91075862caa1b72aa1d5",
          "blockNumber": "0x945e40",
          "blockTimestamp": "0x69296d24",
          "transactionHash": "0xc44d1e46afdaa59a7796903e43d2f1723925804844d49c67af4f7c5d9b5907fd",
          "transactionIndex": "0x58",
          "logIndex": "0x80",
          "removed": false
        }
      ],
      "logsBloom": "0x00000000000000000000000000008000000002000000000000000100000100000000000000000000000000000000000000000000000000000000000000000000000000000000000000000008000000000000000000000000000000000000000000000000020000000000000000000800000000000000000000000010000000000000000000000000000000000000000000000000000000000000000000000000000000000000000000000000000000000000000000000000000100000000000000000002000000000000000000000000000000000000000000000000000020000000000000000000000000000000004000000000000000000000000000000000",
      "type": "0x2",
      "transactionHash": "0xc44d1e46afdaa59a7796903e43d2f1723925804844d49c67af4f7c5d9b5907fd",
      "transactionIndex": "0x58",
      "blockHash": "0x289cb4bd3a36081e2c075502184f8d11b6efe5ffa1ec91075862caa1b72aa1d5",
      "blockNumber": "0x945e40",
      "gasUsed": "0x15962",
      "effectiveGasPrice": "0xf424d",
      "from": "0x1b74ebed295355728172f74000b106ef61662fc8",
      "to": "0x05a644d6d9bbd85861ff927245aac13bd56e6d57",
      "contractAddress": null
    },
    {
      "status": "0x1",
      "cumulativeGasUsed": "0x120a311",
      "logs": [],
      "logsBloom": "0x00000000000000000000000000000000000000000000000000000000000000000000000000000000000000000000000000000000000000000000000000000000000000000000000000000000000000000000000000000000000000000000000000000000000000000000000000000000000000000000000000000000000000000000000000000000000000000000000000000000000000000000000000000000000000000000000000000000000000000000000000000000000000000000000000000000000000000000000000000000000000000000000000000000000000000000000000000000000000000000000000000000000000000000000000000000",
      "type": "0x2",
      "transactionHash": "0x193a1e7e75f9d01b1d0723e62389316960aecf3314ea37f6b16f9763668ae615",
      "transactionIndex": "0x59",
      "blockHash": "0x289cb4bd3a36081e2c075502184f8d11b6efe5ffa1ec91075862caa1b72aa1d5",
      "blockNumber": "0x945e40",
      "gasUsed": "0xb6a5",
      "effectiveGasPrice": "0xf424d",
      "from": "0x1b74ebed295355728172f74000b106ef61662fc8",
      "to": "0xd6c236bb988541b9f93908dc3661ee90b808b28a",
      "contractAddress": null
    },
    {
      "status": "0x1",
      "cumulativeGasUsed": "0x12159a8",
      "logs": [],
      "logsBloom": "0x00000000000000000000000000000000000000000000000000000000000000000000000000000000000000000000000000000000000000000000000000000000000000000000000000000000000000000000000000000000000000000000000000000000000000000000000000000000000000000000000000000000000000000000000000000000000000000000000000000000000000000000000000000000000000000000000000000000000000000000000000000000000000000000000000000000000000000000000000000000000000000000000000000000000000000000000000000000000000000000000000000000000000000000000000000000",
      "type": "0x2",
      "transactionHash": "0xcba65bb14d8334497767bdc662777ecdea7c49cab78c500b9d849dcfd1feff17",
      "transactionIndex": "0x5a",
      "blockHash": "0x289cb4bd3a36081e2c075502184f8d11b6efe5ffa1ec91075862caa1b72aa1d5",
      "blockNumber": "0x945e40",
      "gasUsed": "0xb697",
      "effectiveGasPrice": "0xf424d",
      "from": "0x1b74ebed295355728172f74000b106ef61662fc8",
      "to": "0xd6c236bb988541b9f93908dc3661ee90b808b28a",
      "contractAddress": null
    },
    {
      "status": "0x1",
      "cumulativeGasUsed": "0x82684d",
      "logs": [
        {
          "address": "0xd6c236bb988541b9f93908dc3661ee90b808b28a",
          "topics": [
            "0xddf252ad1be2c89b69c2b068fc378daa952ba7f163c4a11628f55a4df523b3ef",
            "0x0000000000000000000000000000000000000000000000000000000000000000",
            "0x00000000000000000000000005a644d6d9bbd85861ff927245aac13bd56e6d57"
          ],
          "data": "0x000000000000000000000000000000000000000000000000016345785d8a0000",
          "blockHash": "0x610d8eeedf06717cd96ca2715ba9d1b0478a4653f168ccac58d3ff61d7cb5164",
          "blockNumber": "0x945e41",
          "blockTimestamp": "0x69296d30",
          "transactionHash": "0xa92c8104aaf19a68486883f9b5690225482b4df88e682013fad4129aef19c45c",
          "transactionIndex": "0x24",
          "logIndex": "0x2e",
          "removed": false
        },
        {
          "address": "0xd6c236bb988541b9f93908dc3661ee90b808b28a",
          "topics": [
            "0xddf252ad1be2c89b69c2b068fc378daa952ba7f163c4a11628f55a4df523b3ef",
            "0x0000000000000000000000000000000000000000000000000000000000000000",
            "0x00000000000000000000000005a644d6d9bbd85861ff927245aac13bd56e6d57"
          ],
          "data": "0x0000000000000000000000000000000000000000000000000429d069189e0000",
          "blockHash": "0x610d8eeedf06717cd96ca2715ba9d1b0478a4653f168ccac58d3ff61d7cb5164",
          "blockNumber": "0x945e41",
          "blockTimestamp": "0x69296d30",
          "transactionHash": "0xa92c8104aaf19a68486883f9b5690225482b4df88e682013fad4129aef19c45c",
          "transactionIndex": "0x24",
          "logIndex": "0x2f",
          "removed": false
        },
        {
          "address": "0xe9b502e84d3e0a6dedb58aa61612dcb543d5eb42",
          "topics": [
            "0xddf252ad1be2c89b69c2b068fc378daa952ba7f163c4a11628f55a4df523b3ef",
            "0x0000000000000000000000000000000000000000000000000000000000000000",
            "0x0000000000000000000000001b74ebed295355728172f74000b106ef61662fc8"
          ],
          "data": "0x0000000000000000000000000000000000000000000000001bc16d674ec80000",
          "blockHash": "0x610d8eeedf06717cd96ca2715ba9d1b0478a4653f168ccac58d3ff61d7cb5164",
          "blockNumber": "0x945e41",
          "blockTimestamp": "0x69296d30",
          "transactionHash": "0xa92c8104aaf19a68486883f9b5690225482b4df88e682013fad4129aef19c45c",
          "transactionIndex": "0x24",
          "logIndex": "0x30",
          "removed": false
        }
      ],
      "logsBloom": "0x00000000000000000000000000008000000002000000000000000100000100000000000000000000000000000000000000000000000000000000000000000000000000000000000000040008001000000000000000000000000000000000000000000000020000000000000000000800000000000000000000000010000000000040000000000000000000000000000000000000000008000000000000000000000000000000000400000000000000000000000000000000000100000000000000000002000000000000000000000000000000000000000000000000000020000000000000000000000000000000006000000000000000000000000000000000",
      "type": "0x2",
      "transactionHash": "0xa92c8104aaf19a68486883f9b5690225482b4df88e682013fad4129aef19c45c",
      "transactionIndex": "0x24",
      "blockHash": "0x610d8eeedf06717cd96ca2715ba9d1b0478a4653f168ccac58d3ff61d7cb5164",
      "blockNumber": "0x945e41",
      "gasUsed": "0x234f9",
      "effectiveGasPrice": "0xf424e",
      "from": "0x1b74ebed295355728172f74000b106ef61662fc8",
      "to": "0x05a644d6d9bbd85861ff927245aac13bd56e6d57",
      "contractAddress": null
    },
    {
      "status": "0x1",
      "cumulativeGasUsed": "0x82dc18",
      "logs": [],
      "logsBloom": "0x00000000000000000000000000000000000000000000000000000000000000000000000000000000000000000000000000000000000000000000000000000000000000000000000000000000000000000000000000000000000000000000000000000000000000000000000000000000000000000000000000000000000000000000000000000000000000000000000000000000000000000000000000000000000000000000000000000000000000000000000000000000000000000000000000000000000000000000000000000000000000000000000000000000000000000000000000000000000000000000000000000000000000000000000000000000",
      "type": "0x2",
      "transactionHash": "0x48688e8ace16bc4e84c73356aad90859a08700b9dfbc0e37968a84edc395ca5b",
      "transactionIndex": "0x25",
      "blockHash": "0x610d8eeedf06717cd96ca2715ba9d1b0478a4653f168ccac58d3ff61d7cb5164",
      "blockNumber": "0x945e41",
      "gasUsed": "0x73cb",
      "effectiveGasPrice": "0xf424e",
      "from": "0x1b74ebed295355728172f74000b106ef61662fc8",
      "to": "0xd6c236bb988541b9f93908dc3661ee90b808b28a",
      "contractAddress": null
    },
    {
      "status": "0x1",
      "cumulativeGasUsed": "0x84c418",
      "logs": [
        {
          "address": "0xd6c236bb988541b9f93908dc3661ee90b808b28a",
          "topics": [
            "0xddf252ad1be2c89b69c2b068fc378daa952ba7f163c4a11628f55a4df523b3ef",
            "0x0000000000000000000000000000000000000000000000000000000000000000",
            "0x00000000000000000000000005a644d6d9bbd85861ff927245aac13bd56e6d57"
          ],
          "data": "0x00000000000000000000000000000000000000000000000002c68af0bb140000",
          "blockHash": "0x610d8eeedf06717cd96ca2715ba9d1b0478a4653f168ccac58d3ff61d7cb5164",
          "blockNumber": "0x945e41",
          "blockTimestamp": "0x69296d30",
          "transactionHash": "0x51ae8f55a4954aaa65dfc90ca382468376096821e87c6b23218eea7f42a97b91",
          "transactionIndex": "0x26",
          "logIndex": "0x31",
          "removed": false
        },
        {
          "address": "0xd6c236bb988541b9f93908dc3661ee90b808b28a",
          "topics": [
            "0xddf252ad1be2c89b69c2b068fc378daa952ba7f163c4a11628f55a4df523b3ef",
            "0x0000000000000000000000000000000000000000000000000000000000000000",
            "0x00000000000000000000000005a644d6d9bbd85861ff927245aac13bd56e6d57"
          ],
          "data": "0x0000000000000000000000000000000000000000000000000853a0d2313c0000",
          "blockHash": "0x610d8eeedf06717cd96ca2715ba9d1b0478a4653f168ccac58d3ff61d7cb5164",
          "blockNumber": "0x945e41",
          "blockTimestamp": "0x69296d30",
          "transactionHash": "0x51ae8f55a4954aaa65dfc90ca382468376096821e87c6b23218eea7f42a97b91",
          "transactionIndex": "0x26",
          "logIndex": "0x32",
          "removed": false
        },
        {
          "address": "0xe9b502e84d3e0a6dedb58aa61612dcb543d5eb42",
          "topics": [
            "0xddf252ad1be2c89b69c2b068fc378daa952ba7f163c4a11628f55a4df523b3ef",
            "0x0000000000000000000000000000000000000000000000000000000000000000",
            "0x0000000000000000000000001b74ebed295355728172f74000b106ef61662fc8"
          ],
          "data": "0x0000000000000000000000000000000000000000000000001bc16d674ec80000",
          "blockHash": "0x610d8eeedf06717cd96ca2715ba9d1b0478a4653f168ccac58d3ff61d7cb5164",
          "blockNumber": "0x945e41",
          "blockTimestamp": "0x69296d30",
          "transactionHash": "0x51ae8f55a4954aaa65dfc90ca382468376096821e87c6b23218eea7f42a97b91",
          "transactionIndex": "0x26",
          "logIndex": "0x33",
          "removed": false
        }
      ],
      "logsBloom": "0x00000000000000000000000000008000000002000000000000000100000100000000000000000000000000000000000000000000000000000000000000000000000000000000000000040008001000000000000000000000000000000000000000000000020000000000000000000800000000000000000000000010000000000040000000000000000000000000000000000000000008000000000000000000000000000000000400000000000000000000000000000000000100000000000000000002000000000000000000000000000000000000000000000000000020000000000000000000000000000000006000000000000000000000000000000000",
      "type": "0x2",
      "transactionHash": "0x51ae8f55a4954aaa65dfc90ca382468376096821e87c6b23218eea7f42a97b91",
      "transactionIndex": "0x26",
      "blockHash": "0x610d8eeedf06717cd96ca2715ba9d1b0478a4653f168ccac58d3ff61d7cb5164",
      "blockNumber": "0x945e41",
      "gasUsed": "0x1e800",
      "effectiveGasPrice": "0xf424e",
      "from": "0x1b74ebed295355728172f74000b106ef61662fc8",
      "to": "0x05a644d6d9bbd85861ff927245aac13bd56e6d57",
      "contractAddress": null
    }
  ],
  "libraries": [],
  "pending": [],
  "returns": {},
  "timestamp": 1764322608623,
  "chain": 11155111,
  "commit": "fe24968"
}