{
  "transactions": [
    {
      "hash": "0xaf7583c31cf9ec6370b77fd4ea1ec205159c45ea5abb1843587db7bbd2df9bcd",
      "transactionType": "CALL",
      "contractName": null,
      "contractAddress": "0x48b494a240c8f98809f43325c12c6875c91ed070",
      "function": "enableWhitelist(bool)",
      "arguments": [
        "true"
      ],
      "transaction": {
        "from": "0xf00e79e7c1e0276ba8e42c9cd9769735cfd7784c",
        "to": "0x48b494a240c8f98809f43325c12c6875c91ed070",
        "gas": "0xf886",
        "value": "0x0",
        "input": "0x040b65830000000000000000000000000000000000000000000000000000000000000001",
        "nonce": "0x14",
        "chainId": "0xaa36a7"
      },
      "additionalContracts": [],
      "isFixedGasLimit": false
    },
    {
      "hash": "0x8fca40fe1cf360013e54cceff2fe363857219f1ea419d6b22d956a835c4574b6",
      "transactionType": "CALL",
      "contractName": "Evaluator",
      "contractAddress": "0x05a644d6d9bbd85861ff927245aac13bd56e6d57",
      "function": "ex5_testDenyListing()",
      "arguments": [],
      "transaction": {
        "from": "0xf00e79e7c1e0276ba8e42c9cd9769735cfd7784c",
        "to": "0x05a644d6d9bbd85861ff927245aac13bd56e6d57",
        "gas": "0x1a36c",
        "value": "0x0",
        "input": "0xec65b16e",
        "nonce": "0x15",
        "chainId": "0xaa36a7"
      },
      "additionalContracts": [],
      "isFixedGasLimit": false
    },
    {
      "hash": "0x786536f0d049f5bc8b9c178b50d0bfb4181d89245cf9cc0e20dbb4a465334084",
      "transactionType": "CALL",
      "contractName": null,
      "contractAddress": "0x48b494a240c8f98809f43325c12c6875c91ed070",
      "function": "setWhitelist(address,bool)",
      "arguments": [
        "0x05A644d6d9BBd85861ff927245aaC13bd56e6d57",
        "true"
      ],
      "transaction": {
        "from": "0xf00e79e7c1e0276ba8e42c9cd9769735cfd7784c",
        "to": "0x48b494a240c8f98809f43325c12c6875c91ed070",
        "gas": "0xfc46",
        "value": "0x0",
        "input": "0x53d6fd5900000000000000000000000005a644d6d9bbd85861ff927245aac13bd56e6d570000000000000000000000000000000000000000000000000000000000000001",
        "nonce": "0x16",
        "chainId": "0xaa36a7"
      },
      "additionalContracts": [],
      "isFixedGasLimit": false
    },
    {
      "hash": "0xa4a59bd0c2a3452c6b3cbb343106e59c56ff482c26c47998cae538ddeba2354f",
      "transactionType": "CALL",
      "contractName": "Evaluator",
      "contractAddress": "0x05a644d6d9bbd85861ff927245aac13bd56e6d57",
      "function": "ex6_testAllowListing()",
      "arguments": [],
      "transaction": {
        "from": "0xf00e79e7c1e0276ba8e42c9cd9769735cfd7784c",
        "to": "0x05a644d6d9bbd85861ff927245aac13bd56e6d57",
        "gas": "0x23489",
        "value": "0x0",
        "input": "0x0af78edc",
        "nonce": "0x17",
        "chainId": "0xaa36a7"
      },
      "additionalContracts": [],
      "isFixedGasLimit": false
    }
  ],
  "receipts": [
    {
      "status": "0x1",
      "cumulativeGasUsed": "0x33858e5",
      "logs": [],
      "logsBloom": "0x00000000000000000000000000000000000000000000000000000000000000000000000000000000000000000000000000000000000000000000000000000000000000000000000000000000000000000000000000000000000000000000000000000000000000000000000000000000000000000000000000000000000000000000000000000000000000000000000000000000000000000000000000000000000000000000000000000000000000000000000000000000000000000000000000000000000000000000000000000000000000000000000000000000000000000000000000000000000000000000000000000000000000000000000000000000",
      "type": "0x2",
      "transactionHash": "0xaf7583c31cf9ec6370b77fd4ea1ec205159c45ea5abb1843587db7bbd2df9bcd",
      "transactionIndex": "0x51",
      "blockHash": "0xaea0e40a97e8fc4479165ca2c447dad00d38cf868f80873035a46a6abf349ff6",
      "blockNumber": "0x92b890",
      "gasUsed": "0xb3ee",
      "effectiveGasPrice": "0xfec88",
      "from": "0xf00e79e7c1e0276ba8e42c9cd9769735cfd7784c",
      "to": "0x48b494a240c8f98809f43325c12c6875c91ed070",
      "contractAddress": null
    },
    {
      "status": "0x1",
      "cumulativeGasUsed": "0x339888d",
      "logs": [
        {
          "address": "0xe9b502e84d3e0a6dedb58aa61612dcb543d5eb42",
          "topics": [
            "0xddf252ad1be2c89b69c2b068fc378daa952ba7f163c4a11628f55a4df523b3ef",
            "0x0000000000000000000000000000000000000000000000000000000000000000",
            "0x000000000000000000000000f00e79e7c1e0276ba8e42c9cd9769735cfd7784c"
          ],
          "data": "0x0000000000000000000000000000000000000000000000000de0b6b3a7640000",
          "blockHash": "0xaea0e40a97e8fc4479165ca2c447dad00d38cf868f80873035a46a6abf349ff6",
          "blockNumber": "0x92b890",
          "blockTimestamp": "0x6914bf38",
          "transactionHash": "0x8fca40fe1cf360013e54cceff2fe363857219f1ea419d6b22d956a835c4574b6",
          "transactionIndex": "0x52",
          "logIndex": "0x9c",
          "removed": false
        }
      ],
      "logsBloom": "0x00000000000000000000000000008000000000000000000000000000000100000000000000000000000000000000000000000000000000000000000000000008000000000000000000000008000000000000000000000000000000000000000000000000020000000000000000000800000000000000000000000010000000000000000000000000000080000000000000000000000000000000000000000000000000000000000000000000000000000000000000000000000000000000000000000002000000000000000000000000000000000000000000000000000020000000000000000000000000000000004000000000000000010000000000000000",
      "type": "0x2",
      "transactionHash": "0x8fca40fe1cf360013e54cceff2fe363857219f1ea419d6b22d956a835c4574b6",
      "transactionIndex": "0x52",
      "blockHash": "0xaea0e40a97e8fc4479165ca2c447dad00d38cf868f80873035a46a6abf349ff6",
      "blockNumber": "0x92b890",
      "gasUsed": "0x12fa8",
      "effectiveGasPrice": "0xfec88",
      "from": "0xf00e79e7c1e0276ba8e42c9cd9769735cfd7784c",
      "to": "0x05a644d6d9bbd85861ff927245aac13bd56e6d57",
      "contractAddress": null
    },
    {
      "status": "0x1",
      "cumulativeGasUsed": "0x33a3f32",
      "logs": [],
      "logsBloom": "0x00000000000000000000000000000000000000000000000000000000000000000000000000000000000000000000000000000000000000000000000000000000000000000000000000000000000000000000000000000000000000000000000000000000000000000000000000000000000000000000000000000000000000000000000000000000000000000000000000000000000000000000000000000000000000000000000000000000000000000000000000000000000000000000000000000000000000000000000000000000000000000000000000000000000000000000000000000000000000000000000000000000000000000000000000000000",
      "type": "0x2",
      "transactionHash": "0x786536f0d049f5bc8b9c178b50d0bfb4181d89245cf9cc0e20dbb4a465334084",
      "transactionIndex": "0x53",
      "blockHash": "0xaea0e40a97e8fc4479165ca2c447dad00d38cf868f80873035a46a6abf349ff6",
      "blockNumber": "0x92b890",
      "gasUsed": "0xb6a5",
      "effectiveGasPrice": "0xfec88",
      "from": "0xf00e79e7c1e0276ba8e42c9cd9769735cfd7784c",
      "to": "0x48b494a240c8f98809f43325c12c6875c91ed070",
      "contractAddress": null
    },
    {
      "status": "0x1",
      "cumulativeGasUsed": "0x33bc134",
      "logs": [
        {
          "address": "0x48b494a240c8f98809f43325c12c6875c91ed070",
          "topics": [
            "0xddf252ad1be2c89b69c2b068fc378daa952ba7f163c4a11628f55a4df523b3ef",
            "0x0000000000000000000000000000000000000000000000000000000000000000",
            "0x00000000000000000000000005a644d6d9bbd85861ff927245aac13bd56e6d57"
          ],
          "data": "0x0000000000000000000000000000000000000000000000056bc75e2d63100000",
          "blockHash": "0xaea0e40a97e8fc4479165ca2c447dad00d38cf868f80873035a46a6abf349ff6",
          "blockNumber": "0x92b890",
          "blockTimestamp": "0x6914bf38",
          "transactionHash": "0xa4a59bd0c2a3452c6b3cbb343106e59c56ff482c26c47998cae538ddeba2354f",
          "transactionIndex": "0x54",
          "logIndex": "0x9d",
          "removed": false
        },
        {
          "address": "0xe9b502e84d3e0a6dedb58aa61612dcb543d5eb42",
          "topics": [
            "0xddf252ad1be2c89b69c2b068fc378daa952ba7f163c4a11628f55a4df523b3ef",
            "0x0000000000000000000000000000000000000000000000000000000000000000",
            "0x000000000000000000000000f00e79e7c1e0276ba8e42c9cd9769735cfd7784c"
          ],
          "data": "0x0000000000000000000000000000000000000000000000001bc16d674ec80000",
          "blockHash": "0xaea0e40a97e8fc4479165ca2c447dad00d38cf868f80873035a46a6abf349ff6",
          "blockNumber": "0x92b890",
          "blockTimestamp": "0x6914bf38",
          "transactionHash": "0xa4a59bd0c2a3452c6b3cbb343106e59c56ff482c26c47998cae538ddeba2354f",
          "transactionIndex": "0x54",
          "logIndex": "0x9e",
          "removed": false
        }
      ],
      "logsBloom": "0x00000000000000000000000000008000000000000000000000000000000100000000000000000000000000000000000000000000000000000000000000008008000000000000000000000008000000000000000000000000000000000000000000000000020000000000000000000808000000000000000000000010000000000040000000000000000080000000000000000000000008000000000000000020000000000000000000000000000000000000000000000000000000000000000000000002000000000000000000000000000000000000000000000000000020000000000000000000000000000000006000000000000000010000000000000000",
      "type": "0x2",
      "transactionHash": "0xa4a59bd0c2a3452c6b3cbb343106e59c56ff482c26c47998cae538ddeba2354f",
      "transactionIndex": "0x54",
      "blockHash": "0xaea0e40a97e8fc4479165ca2c447dad00d38cf868f80873035a46a6abf349ff6",
      "blockNumber": "0x92b890",
      "gasUsed": "0x18202",
      "effectiveGasPrice": "0xfec88",
      "from": "0xf00e79e7c1e0276ba8e42c9cd9769735cfd7784c",
      "to": "0x05a644d6d9bbd85861ff927245aac13bd56e6d57",
      "contractAddress": null
    }
  ],
  "libraries": [],
  "pending": [],
  "returns": {},
  "timestamp": 1762967354389,
  "chain": 11155111,
  "commit": "7b5d216"
}