{
  "transactions": [
    {
      "hash": "0xfb38de59da1523c565863e1ceea0643faef1f576e022cbb46a1946d0eae0a7da",
      "transactionType": "CALL",
      "contractName": "Evaluator",
      "contractAddress": "0x05a644d6d9bbd85861ff927245aac13bd56e6d57",
      "function": "ex3_testGetToken()",
      "arguments": [],
      "transaction": {
        "from": "0xf00e79e7c1e0276ba8e42c9cd9769735cfd7784c",
        "to": "0x05a644d6d9bbd85861ff927245aac13bd56e6d57",
        "gas": "0x15dca",
        "value": "0x0",
        "input": "0x3bc40956",
        "nonce": "0x1b",
        "chainId": "0xaa36a7"
      },
      "additionalContracts": [],
      "isFixedGasLimit": false
    },
    {
      "hash": "0x0acc7bb253d87476bf2434993a606fdf0e0d1ddc9fc50a4ec18dd6fee857d739",
      "transactionType": "CALL",
      "contractName": "Evaluator",
      "contractAddress": "0x05a644d6d9bbd85861ff927245aac13bd56e6d57",
      "function": "ex4_testBuyToken()",
      "arguments": [],
      "transaction": {
        "from": "0xf00e79e7c1e0276ba8e42c9cd9769735cfd7784c",
        "to": "0x05a644d6d9bbd85861ff927245aac13bd56e6d57",
        "gas": "0x1702a",
        "value": "0x0",
        "input": "0xb32b559f",
        "nonce": "0x1c",
        "chainId": "0xaa36a7"
      },
      "additionalContracts": [],
      "isFixedGasLimit": false
    },
    {
      "hash": "0x8eb97691e0bc2f74deb8ff1765edfdc01462fd3011093e2c8b5dd0ad2c0d01be",
      "transactionType": "CALL",
      "contractName": null,
      "contractAddress": "0x7c3e30dce9e391cbb789f2851452350e0397ef78",
      "function": "enableWhitelist(bool)",
      "arguments": [
        "true"
      ],
      "transaction": {
        "from": "0xf00e79e7c1e0276ba8e42c9cd9769735cfd7784c",
        "to": "0x7c3e30dce9e391cbb789f2851452350e0397ef78",
        "gas": "0xf886",
        "value": "0x0",
        "input": "0x040b65830000000000000000000000000000000000000000000000000000000000000001",
        "nonce": "0x1d",
        "chainId": "0xaa36a7"
      },
      "additionalContracts": [],
      "isFixedGasLimit": false
    },
    {
      "hash": "0x4dbe907cc121a2f4417ffc537c226dab596480edf441eca66830c9eee36ecbd0",
      "transactionType": "CALL",
      "contractName": "Evaluator",
      "contractAddress": "0x05a644d6d9bbd85861ff927245aac13bd56e6d57",
      "function": "ex5_testDenyListing()",
      "arguments": [],
      "transaction": {
        "from": "0xf00e79e7c1e0276ba8e42c9cd9769735cfd7784c",
        "to": "0x05a644d6d9bbd85861ff927245aac13bd56e6d57",
        "gas": "0xc095",
        "value": "0x0",
        "input": "0xec65b16e",
        "nonce": "0x1e",
        "chainId": "0xaa36a7"
      },
      "additionalContracts": [],
      "isFixedGasLimit": false
    },
    {
      "hash": "0x78bc58aecac97bbc085d4352ac7c4c77261aece239aced80702dc97517372055",
      "transactionType": "CALL",
      "contractName": null,
      "contractAddress": "0x7c3e30dce9e391cbb789f2851452350e0397ef78",
      "function": "setWhitelist(address,bool)",
      "arguments": [
        "0x05A644d6d9BBd85861ff927245aaC13bd56e6d57",
        "true"
      ],
      "transaction": {
        "from": "0xf00e79e7c1e0276ba8e42c9cd9769735cfd7784c",
        "to": "0x7c3e30dce9e391cbb789f2851452350e0397ef78",
        "gas": "0xfc46",
        "value": "0x0",
        "input": "0x53d6fd5900000000000000000000000005a644d6d9bbd85861ff927245aac13bd56e6d570000000000000000000000000000000000000000000000000000000000000001",
        "nonce": "0x1f",
        "chainId": "0xaa36a7"
      },
      "additionalContracts": [],
      "isFixedGasLimit": false
    },
    {
      "hash": "0x2eb41dacbf654bce397093f2090b1a2ba3f092696b17e7c651c05223f3980eb1",
      "transactionType": "CALL",
      "contractName": "Evaluator",
      "contractAddress": "0x05a644d6d9bbd85861ff927245aac13bd56e6d57",
      "function": "ex6_testAllowListing()",
      "arguments": [],
      "transaction": {
        "from": "0xf00e79e7c1e0276ba8e42c9cd9769735cfd7784c",
        "to": "0x05a644d6d9bbd85861ff927245aac13bd56e6d57",
        "gas": "0x13255",
        "value": "0x0",
        "input": "0x0af78edc",
        "nonce": "0x20",
        "chainId": "0xaa36a7"
      },
      "additionalContracts": [],
      "isFixedGasLimit": false
    },
    {
      "hash": "0xb9f798c7b3db7091720e653cda0627086e4c6ada68b97f964c288c83e9f58112",
      "transactionType": "CALL",
      "contractName": null,
      "contractAddress": "0x7c3e30dce9e391cbb789f2851452350e0397ef78",
      "function": "setWhitelist(address,bool)",
      "arguments": [
        "0x05A644d6d9BBd85861ff927245aaC13bd56e6d57",
        "false"
      ],
      "transaction": {
        "from": "0xf00e79e7c1e0276ba8e42c9cd9769735cfd7784c",
        "to": "0x7c3e30dce9e391cbb789f2851452350e0397ef78",
        "gas": "0x860c",
        "value": "0x0",
        "input": "0x53d6fd5900000000000000000000000005a644d6d9bbd85861ff927245aac13bd56e6d570000000000000000000000000000000000000000000000000000000000000000",
        "nonce": "0x21",
        "chainId": "0xaa36a7"
      },
      "additionalContracts": [],
      "isFixedGasLimit": false
    },
    {
      "hash": "0xb409aa4d63b1c1b47b5660ddd3d62a18d013cff43c63ca25d93b61e55ddca823",
      "transactionType": "CALL",
      "contractName": null,
      "contractAddress": "0x7c3e30dce9e391cbb789f2851452350e0397ef78",
      "function": "enableWhitelist(bool)",
      "arguments": [
        "false"
      ],
      "transaction": {
        "from": "0xf00e79e7c1e0276ba8e42c9cd9769735cfd7784c",
        "to": "0x7c3e30dce9e391cbb789f2851452350e0397ef78",
        "gas": "0x824c",
        "value": "0x0",
        "input": "0x040b65830000000000000000000000000000000000000000000000000000000000000000",
        "nonce": "0x22",
        "chainId": "0xaa36a7"
      },
      "additionalContracts": [],
      "isFixedGasLimit": false
    },
    {
      "hash": "0xd9fa2edfb2a83d757e3669217afa7c41582fcfb0a06a4f8e3edff7bb1e727e76",
      "transactionType": "CALL",
      "contractName": null,
      "contractAddress": "0x7c3e30dce9e391cbb789f2851452350e0397ef78",
      "function": "enableTier(bool)",
      "arguments": [
        "true"
      ],
      "transaction": {
        "from": "0xf00e79e7c1e0276ba8e42c9cd9769735cfd7784c",
        "to": "0x7c3e30dce9e391cbb789f2851452350e0397ef78",
        "gas": "0xf908",
        "value": "0x0",
        "input": "0x5e1c12cd0000000000000000000000000000000000000000000000000000000000000001",
        "nonce": "0x23",
        "chainId": "0xaa36a7"
      },
      "additionalContracts": [],
      "isFixedGasLimit": false
    },
    {
      "hash": "0x1d536c3359151346ba2cb5af950eb95abb5b3585a763f26da72e8ea80ad4edaf",
      "transactionType": "CALL",
      "contractName": "Evaluator",
      "contractAddress": "0x05a644d6d9bbd85861ff927245aac13bd56e6d57",
      "function": "ex7_testDenyListing()",
      "arguments": [],
      "transaction": {
        "from": "0xf00e79e7c1e0276ba8e42c9cd9769735cfd7784c",
        "to": "0x05a644d6d9bbd85861ff927245aac13bd56e6d57",
        "gas": "0x1f91f",
        "value": "0x0",
        "input": "0xa6c611d9",
        "nonce": "0x24",
        "chainId": "0xaa36a7"
      },
      "additionalContracts": [],
      "isFixedGasLimit": false
    },
    {
      "hash": "0xefb4f7f96c9f98d503d0839895f9e64a4cc8c6dc64fbb5e8b91e43a8dd9517e1",
      "transactionType": "CALL",
      "contractName": null,
      "contractAddress": "0x7c3e30dce9e391cbb789f2851452350e0397ef78",
      "function": "setWhitelist(address,bool)",
      "arguments": [
        "0x05A644d6d9BBd85861ff927245aaC13bd56e6d57",
        "true"
      ],
      "transaction": {
        "from": "0xf00e79e7c1e0276ba8e42c9cd9769735cfd7784c",
        "to": "0x7c3e30dce9e391cbb789f2851452350e0397ef78",
        "gas": "0xfc46",
        "value": "0x0",
        "input": "0x53d6fd5900000000000000000000000005a644d6d9bbd85861ff927245aac13bd56e6d570000000000000000000000000000000000000000000000000000000000000001",
        "nonce": "0x25",
        "chainId": "0xaa36a7"
      },
      "additionalContracts": [],
      "isFixedGasLimit": false
    },
    {
      "hash": "0x3e735ca506ecfbf2f05ca0b9b4666ffdf3c4b30288eaa0413ef43037a9333424",
      "transactionType": "CALL",
      "contractName": null,
      "contractAddress": "0x7c3e30dce9e391cbb789f2851452350e0397ef78",
      "function": "setTier(address,uint256)",
      "arguments": [
        "0x05A644d6d9BBd85861ff927245aaC13bd56e6d57",
        "1"
      ],
      "transaction": {
        "from": "0xf00e79e7c1e0276ba8e42c9cd9769735cfd7784c",
        "to": "0x7c3e30dce9e391cbb789f2851452350e0397ef78",
        "gas": "0xfc33",
        "value": "0x0",
        "input": "0xa914adce00000000000000000000000005a644d6d9bbd85861ff927245aac13bd56e6d570000000000000000000000000000000000000000000000000000000000000001",
        "nonce": "0x26",
        "chainId": "0xaa36a7"
      },
      "additionalContracts": [],
      "isFixedGasLimit": false
    },
    {
      "hash": "0x1f1b92d19f0e0d0c7da493e26927cf98af865beea85e9ec9b87c12a391206fd7",
      "transactionType": "CALL",
      "contractName": "Evaluator",
      "contractAddress": "0x05a644d6d9bbd85861ff927245aac13bd56e6d57",
      "function": "ex8_testTier1Listing()",
      "arguments": [],
      "transaction": {
        "from": "0xf00e79e7c1e0276ba8e42c9cd9769735cfd7784c",
        "to": "0x05a644d6d9bbd85861ff927245aac13bd56e6d57",
        "gas": "0x33a45",
        "value": "0x0",
        "input": "0x16f4b99f",
        "nonce": "0x27",
        "chainId": "0xaa36a7"
      },
      "additionalContracts": [],
      "isFixedGasLimit": false
    },
    {
      "hash": "0xda7aad82bd22d309ff6b1d623729a2f19e5ed11cc1fa4824ebd01b9dfc768b3c",
      "transactionType": "CALL",
      "contractName": null,
      "contractAddress": "0x7c3e30dce9e391cbb789f2851452350e0397ef78",
      "function": "setTier(address,uint256)",
      "arguments": [
        "0x05A644d6d9BBd85861ff927245aaC13bd56e6d57",
        "2"
      ],
      "transaction": {
        "from": "0xf00e79e7c1e0276ba8e42c9cd9769735cfd7784c",
        "to": "0x7c3e30dce9e391cbb789f2851452350e0397ef78",
        "gas": "0xa958",
        "value": "0x0",
        "input": "0xa914adce00000000000000000000000005a644d6d9bbd85861ff927245aac13bd56e6d570000000000000000000000000000000000000000000000000000000000000002",
        "nonce": "0x28",
        "chainId": "0xaa36a7"
      },
      "additionalContracts": [],
      "isFixedGasLimit": false
    },
    {
      "hash": "0x6d3b93da865764cac1eb3937ae5a5f4b5b6d820a147c344a33679b9d11facbb2",
      "transactionType": "CALL",
      "contractName": "Evaluator",
      "contractAddress": "0x05a644d6d9bbd85861ff927245aac13bd56e6d57",
      "function": "ex9_testTier2Listing()",
      "arguments": [],
      "transaction": {
        "from": "0xf00e79e7c1e0276ba8e42c9cd9769735cfd7784c",
        "to": "0x05a644d6d9bbd85861ff927245aac13bd56e6d57",
        "gas": "0x2a20c",
        "value": "0x0",
        "input": "0xccd64d7d",
        "nonce": "0x29",
        "chainId": "0xaa36a7"
      },
      "additionalContracts": [],
      "isFixedGasLimit": false
    }
  ],
  "receipts": [
    {
      "status": "0x1",
      "cumulativeGasUsed": "0x120ad54",
      "logs": [
        {
          "address": "0x7c3e30dce9e391cbb789f2851452350e0397ef78",
          "topics": [
            "0xddf252ad1be2c89b69c2b068fc378daa952ba7f163c4a11628f55a4df523b3ef",
            "0x0000000000000000000000000000000000000000000000000000000000000000",
            "0x00000000000000000000000005a644d6d9bbd85861ff927245aac13bd56e6d57"
          ],
          "data": "0x0000000000000000000000000000000000000000000000056bc75e2d63100000",
          "blockHash": "0x12e50166746074646106e5f541b7ef0ea897f4ccad0d1e26242b41a3acd955ee",
          "blockNumber": "0x92b8ae",
          "blockTimestamp": "0x6914c0a0",
          "transactionHash": "0xfb38de59da1523c565863e1ceea0643faef1f576e022cbb46a1946d0eae0a7da",
          "transactionIndex": "0x3e",
          "logIndex": "0x61",
          "removed": false
        }
      ],
      "logsBloom": "0x00000000000000000000000000000000000000000000000000000000000000000000000000000000000000000000000000000000000000000000000000000000000000000000000000000008000000000000000000000000000000000000000000000000020000000000000000000800000000000000000000000010000000000040000000040000000000000000000000000000000008000000000000000000000000000000000000000000000000000000000000000000000000000000000000000002000000000000000000000000000000000000000000000000000020000000000000000008004000000000002000000000000000000000000000000000",
      "type": "0x2",
      "transactionHash": "0xfb38de59da1523c565863e1ceea0643faef1f576e022cbb46a1946d0eae0a7da",
      "transactionIndex": "0x3e",
      "blockHash": "0x12e50166746074646106e5f541b7ef0ea897f4ccad0d1e26242b41a3acd955ee",
      "blockNumber": "0x92b8ae",
      "gasUsed": "0xfd3f",
      "effectiveGasPrice": "0x10fad6",
      "from": "0xf00e79e7c1e0276ba8e42c9cd9769735cfd7784c",
      "to": "0x05a644d6d9bbd85861ff927245aac13bd56e6d57",
      "contractAddress": null
    },
    {
      "status": "0x1",
      "cumulativeGasUsed": "0x121b7e0",
      "logs": [
        {
          "address": "0x7c3e30dce9e391cbb789f2851452350e0397ef78",
          "topics": [
            "0xddf252ad1be2c89b69c2b068fc378daa952ba7f163c4a11628f55a4df523b3ef",
            "0x0000000000000000000000000000000000000000000000000000000000000000",
            "0x00000000000000000000000005a644d6d9bbd85861ff927245aac13bd56e6d57"
          ],
          "data": "0x000000000000000000000000000000000000000000000000016345785d8a0000",
          "blockHash": "0x12e50166746074646106e5f541b7ef0ea897f4ccad0d1e26242b41a3acd955ee",
          "blockNumber": "0x92b8ae",
          "blockTimestamp": "0x6914c0a0",
          "transactionHash": "0x0acc7bb253d87476bf2434993a606fdf0e0d1ddc9fc50a4ec18dd6fee857d739",
          "transactionIndex": "0x3f",
          "logIndex": "0x62",
          "removed": false
        },
        {
          "address": "0x7c3e30dce9e391cbb789f2851452350e0397ef78",
          "topics": [
            "0xddf252ad1be2c89b69c2b068fc378daa952ba7f163c4a11628f55a4df523b3ef",
            "0x0000000000000000000000000000000000000000000000000000000000000000",
            "0x00000000000000000000000005a644d6d9bbd85861ff927245aac13bd56e6d57"
          ],
          "data": "0x0000000000000000000000000000000000000000000000000429d069189e0000",
          "blockHash": "0x12e50166746074646106e5f541b7ef0ea897f4ccad0d1e26242b41a3acd955ee",
          "blockNumber": "0x92b8ae",
          "blockTimestamp": "0x6914c0a0",
          "transactionHash": "0x0acc7bb253d87476bf2434993a606fdf0e0d1ddc9fc50a4ec18dd6fee857d739",
          "transactionIndex": "0x3f",
          "logIndex": "0x63",
          "removed": false
        }
      ],
      "logsBloom": "0x00000000000000000000000000000000000000000000000000000000000000000000000000000000000000000000000000000000000000000000000000000000000000000000000000000008000000000000000000000000000000000000000000000000020000000000000000000800000000000000000000000010000000000040000000040000000000000000000000000000000008000000000000000000000000000000000000000000000000000000000000000000000000000000000000000002000000000000000000000000000000000000000000000000000020000000000000000008004000000000002000000000000000000000000000000000",
      "type": "0x2",
      "transactionHash": "0x0acc7bb253d87476bf2434993a606fdf0e0d1ddc9fc50a4ec18dd6fee857d739",
      "transactionIndex": "0x3f",
      "blockHash": "0x12e50166746074646106e5f541b7ef0ea897f4ccad0d1e26242b41a3acd955ee",
      "blockNumber": "0x92b8ae",
      "gasUsed": "0x10a8c",
      "effectiveGasPrice": "0x10fad6",
      "from": "0xf00e79e7c1e0276ba8e42c9cd9769735cfd7784c",
      "to": "0x05a644d6d9bbd85861ff927245aac13bd56e6d57",
      "contractAddress": null
    },
    {
      "status": "0x1",
      "cumulativeGasUsed": "0x1226bce",
      "logs": [],
      "logsBloom": "0x00000000000000000000000000000000000000000000000000000000000000000000000000000000000000000000000000000000000000000000000000000000000000000000000000000000000000000000000000000000000000000000000000000000000000000000000000000000000000000000000000000000000000000000000000000000000000000000000000000000000000000000000000000000000000000000000000000000000000000000000000000000000000000000000000000000000000000000000000000000000000000000000000000000000000000000000000000000000000000000000000000000000000000000000000000000",
      "type": "0x2",
      "transactionHash": "0x8eb97691e0bc2f74deb8ff1765edfdc01462fd3011093e2c8b5dd0ad2c0d01be",
      "transactionIndex": "0x40",
      "blockHash": "0x12e50166746074646106e5f541b7ef0ea897f4ccad0d1e26242b41a3acd955ee",
      "blockNumber": "0x92b8ae",
      "gasUsed": "0xb3ee",
      "effectiveGasPrice": "0x10fad6",
      "from": "0xf00e79e7c1e0276ba8e42c9cd9769735cfd7784c",
      "to": "0x7c3e30dce9e391cbb789f2851452350e0397ef78",
      "contractAddress": null
    },
    {
      "status": "0x1",
      "cumulativeGasUsed": "0x122f73c",
      "logs": [],
      "logsBloom": "0x00000000000000000000000000000000000000000000000000000000000000000000000000000000000000000000000000000000000000000000000000000000000000000000000000000000000000000000000000000000000000000000000000000000000000000000000000000000000000000000000000000000000000000000000000000000000000000000000000000000000000000000000000000000000000000000000000000000000000000000000000000000000000000000000000000000000000000000000000000000000000000000000000000000000000000000000000000000000000000000000000000000000000000000000000000000",
      "type": "0x2",
      "transactionHash": "0x4dbe907cc121a2f4417ffc537c226dab596480edf441eca66830c9eee36ecbd0",
      "transactionIndex": "0x41",
      "blockHash": "0x12e50166746074646106e5f541b7ef0ea897f4ccad0d1e26242b41a3acd955ee",
      "blockNumber": "0x92b8ae",
      "gasUsed": "0x8b6e",
      "effectiveGasPrice": "0x10fad6",
      "from": "0xf00e79e7c1e0276ba8e42c9cd9769735cfd7784c",
      "to": "0x05a644d6d9bbd85861ff927245aac13bd56e6d57",
      "contractAddress": null
    },
    {
      "status": "0x1",
      "cumulativeGasUsed": "0x123ade1",
      "logs": [],
      "logsBloom": "0x00000000000000000000000000000000000000000000000000000000000000000000000000000000000000000000000000000000000000000000000000000000000000000000000000000000000000000000000000000000000000000000000000000000000000000000000000000000000000000000000000000000000000000000000000000000000000000000000000000000000000000000000000000000000000000000000000000000000000000000000000000000000000000000000000000000000000000000000000000000000000000000000000000000000000000000000000000000000000000000000000000000000000000000000000000000",
      "type": "0x2",
      "transactionHash": "0x78bc58aecac97bbc085d4352ac7c4c77261aece239aced80702dc97517372055",
      "transactionIndex": "0x42",
      "blockHash": "0x12e50166746074646106e5f541b7ef0ea897f4ccad0d1e26242b41a3acd955ee",
      "blockNumber": "0x92b8ae",
      "gasUsed": "0xb6a5",
      "effectiveGasPrice": "0x10fad6",
      "from": "0xf00e79e7c1e0276ba8e42c9cd9769735cfd7784c",
      "to": "0x7c3e30dce9e391cbb789f2851452350e0397ef78",
      "contractAddress": null
    },
    {
      "status": "0x1",
      "cumulativeGasUsed": "0x1248ba9",
      "logs": [
        {
          "address": "0x7c3e30dce9e391cbb789f2851452350e0397ef78",
          "topics": [
            "0xddf252ad1be2c89b69c2b068fc378daa952ba7f163c4a11628f55a4df523b3ef",
            "0x0000000000000000000000000000000000000000000000000000000000000000",
            "0x00000000000000000000000005a644d6d9bbd85861ff927245aac13bd56e6d57"
          ],
          "data": "0x0000000000000000000000000000000000000000000000056bc75e2d63100000",
          "blockHash": "0x12e50166746074646106e5f541b7ef0ea897f4ccad0d1e26242b41a3acd955ee",
          "blockNumber": "0x92b8ae",
          "blockTimestamp": "0x6914c0a0",
          "transactionHash": "0x2eb41dacbf654bce397093f2090b1a2ba3f092696b17e7c651c05223f3980eb1",
          "transactionIndex": "0x43",
          "logIndex": "0x64",
          "removed": false
        }
      ],
      "logsBloom": "0x00000000000000000000000000000000000000000000000000000000000000000000000000000000000000000000000000000000000000000000000000000000000000000000000000000008000000000000000000000000000000000000000000000000020000000000000000000800000000000000000000000010000000000040000000040000000000000000000000000000000008000000000000000000000000000000000000000000000000000000000000000000000000000000000000000002000000000000000000000000000000000000000000000000000020000000000000000008004000000000002000000000000000000000000000000000",
      "type": "0x2",
      "transactionHash": "0x2eb41dacbf654bce397093f2090b1a2ba3f092696b17e7c651c05223f3980eb1",
      "transactionIndex": "0x43",
      "blockHash": "0x12e50166746074646106e5f541b7ef0ea897f4ccad0d1e26242b41a3acd955ee",
      "blockNumber": "0x92b8ae",
      "gasUsed": "0xddc8",
      "effectiveGasPrice": "0x10fad6",
      "from": "0xf00e79e7c1e0276ba8e42c9cd9769735cfd7784c",
      "to": "0x05a644d6d9bbd85861ff927245aac13bd56e6d57",
      "contractAddress": null
    },
    {
      "status": "0x1",
      "cumulativeGasUsed": "0x124ecb6",
      "logs": [],
      "logsBloom": "0x00000000000000000000000000000000000000000000000000000000000000000000000000000000000000000000000000000000000000000000000000000000000000000000000000000000000000000000000000000000000000000000000000000000000000000000000000000000000000000000000000000000000000000000000000000000000000000000000000000000000000000000000000000000000000000000000000000000000000000000000000000000000000000000000000000000000000000000000000000000000000000000000000000000000000000000000000000000000000000000000000000000000000000000000000000000",
      "type": "0x2",
      "transactionHash": "0xb9f798c7b3db7091720e653cda0627086e4c6ada68b97f964c288c83e9f58112",
      "transactionIndex": "0x44",
      "blockHash": "0x12e50166746074646106e5f541b7ef0ea897f4ccad0d1e26242b41a3acd955ee",
      "blockNumber": "0x92b8ae",
      "gasUsed": "0x610d",
      "effectiveGasPrice": "0x10fad6",
      "from": "0xf00e79e7c1e0276ba8e42c9cd9769735cfd7784c",
      "to": "0x7c3e30dce9e391cbb789f2851452350e0397ef78",
      "contractAddress": null
    },
    {
      "status": "0x1",
      "cumulativeGasUsed": "0x1254b0c",
      "logs": [],
      "logsBloom": "0x00000000000000000000000000000000000000000000000000000000000000000000000000000000000000000000000000000000000000000000000000000000000000000000000000000000000000000000000000000000000000000000000000000000000000000000000000000000000000000000000000000000000000000000000000000000000000000000000000000000000000000000000000000000000000000000000000000000000000000000000000000000000000000000000000000000000000000000000000000000000000000000000000000000000000000000000000000000000000000000000000000000000000000000000000000000",
      "type": "0x2",
      "transactionHash": "0xb409aa4d63b1c1b47b5660ddd3d62a18d013cff43c63ca25d93b61e55ddca823",
      "transactionIndex": "0x45",
      "blockHash": "0x12e50166746074646106e5f541b7ef0ea897f4ccad0d1e26242b41a3acd955ee",
      "blockNumber": "0x92b8ae",
      "gasUsed": "0x5e56",
      "effectiveGasPrice": "0x10fad6",
      "from": "0xf00e79e7c1e0276ba8e42c9cd9769735cfd7784c",
      "to": "0x7c3e30dce9e391cbb789f2851452350e0397ef78",
      "contractAddress": null
    },
    {
      "status": "0x1",
      "cumulativeGasUsed": "0x125ff58",
      "logs": [],
      "logsBloom": "0x00000000000000000000000000000000000000000000000000000000000000000000000000000000000000000000000000000000000000000000000000000000000000000000000000000000000000000000000000000000000000000000000000000000000000000000000000000000000000000000000000000000000000000000000000000000000000000000000000000000000000000000000000000000000000000000000000000000000000000000000000000000000000000000000000000000000000000000000000000000000000000000000000000000000000000000000000000000000000000000000000000000000000000000000000000000",
      "type": "0x2",
      "transactionHash": "0xd9fa2edfb2a83d757e3669217afa7c41582fcfb0a06a4f8e3edff7bb1e727e76",
      "transactionIndex": "0x46",
      "blockHash": "0x12e50166746074646106e5f541b7ef0ea897f4ccad0d1e26242b41a3acd955ee",
      "blockNumber": "0x92b8ae",
      "gasUsed": "0xb44c",
      "effectiveGasPrice": "0x10fad6",
      "from": "0xf00e79e7c1e0276ba8e42c9cd9769735cfd7784c",
      "to": "0x7c3e30dce9e391cbb789f2851452350e0397ef78",
      "contractAddress": null
    },
    {
      "status": "0x1",
      "cumulativeGasUsed": "0x12758ba",
      "logs": [
        {
          "address": "0xe9b502e84d3e0a6dedb58aa61612dcb543d5eb42",
          "topics": [
            "0xddf252ad1be2c89b69c2b068fc378daa952ba7f163c4a11628f55a4df523b3ef",
            "0x0000000000000000000000000000000000000000000000000000000000000000",
            "0x000000000000000000000000f00e79e7c1e0276ba8e42c9cd9769735cfd7784c"
          ],
          "data": "0x0000000000000000000000000000000000000000000000000de0b6b3a7640000",
          "blockHash": "0x12e50166746074646106e5f541b7ef0ea897f4ccad0d1e26242b41a3acd955ee",
          "blockNumber": "0x92b8ae",
          "blockTimestamp": "0x6914c0a0",
          "transactionHash": "0x1d536c3359151346ba2cb5af950eb95abb5b3585a763f26da72e8ea80ad4edaf",
          "transactionIndex": "0x47",
          "logIndex": "0x65",
          "removed": false
        }
      ],
      "logsBloom": "0x00000000000000000000000000008000000000000000000000000000000100000000000000000000000000000000000000000000000000000000000000000008000000000000000000000008000000000000000000000000000000000000000000000000020000000000000000000800000000000000000000000010000000000000000000000000000080000000000000000000000000000000000000000000000000000000000000000000000000000000000000000000000000000000000000000002000000000000000000000000000000000000000000000000000020000000000000000000000000000000004000000000000000010000000000000000",
      "type": "0x2",
      "transactionHash": "0x1d536c3359151346ba2cb5af950eb95abb5b3585a763f26da72e8ea80ad4edaf",
      "transactionIndex": "0x47",
      "blockHash": "0x12e50166746074646106e5f541b7ef0ea897f4ccad0d1e26242b41a3acd955ee",
      "blockNumber": "0x92b8ae",
      "gasUsed": "0x15962",
      "effectiveGasPrice": "0x10fad6",
      "from": "0xf00e79e7c1e0276ba8e42c9cd9769735cfd7784c",
      "to": "0x05a644d6d9bbd85861ff927245aac13bd56e6d57",
      "contractAddress": null
    },
    {
      "status": "0x1",
      "cumulativeGasUsed": "0x1280f5f",
      "logs": [],
      "logsBloom": "0x00000000000000000000000000000000000000000000000000000000000000000000000000000000000000000000000000000000000000000000000000000000000000000000000000000000000000000000000000000000000000000000000000000000000000000000000000000000000000000000000000000000000000000000000000000000000000000000000000000000000000000000000000000000000000000000000000000000000000000000000000000000000000000000000000000000000000000000000000000000000000000000000000000000000000000000000000000000000000000000000000000000000000000000000000000000",
      "type": "0x2",
      "transactionHash": "0xefb4f7f96c9f98d503d0839895f9e64a4cc8c6dc64fbb5e8b91e43a8dd9517e1",
      "transactionIndex": "0x48",
      "blockHash": "0x12e50166746074646106e5f541b7ef0ea897f4ccad0d1e26242b41a3acd955ee",
      "blockNumber": "0x92b8ae",
      "gasUsed": "0xb6a5",
      "effectiveGasPrice": "0x10fad6",
      "from": "0xf00e79e7c1e0276ba8e42c9cd9769735cfd7784c",
      "to": "0x7c3e30dce9e391cbb789f2851452350e0397ef78",
      "contractAddress": null
    },
    {
      "status": "0x1",
      "cumulativeGasUsed": "0x128c5f6",
      "logs": [],
      "logsBloom": "0x00000000000000000000000000000000000000000000000000000000000000000000000000000000000000000000000000000000000000000000000000000000000000000000000000000000000000000000000000000000000000000000000000000000000000000000000000000000000000000000000000000000000000000000000000000000000000000000000000000000000000000000000000000000000000000000000000000000000000000000000000000000000000000000000000000000000000000000000000000000000000000000000000000000000000000000000000000000000000000000000000000000000000000000000000000000",
      "type": "0x2",
      "transactionHash": "0x3e735ca506ecfbf2f05ca0b9b4666ffdf3c4b30288eaa0413ef43037a9333424",
      "transactionIndex": "0x49",
      "blockHash": "0x12e50166746074646106e5f541b7ef0ea897f4ccad0d1e26242b41a3acd955ee",
      "blockNumber": "0x92b8ae",
      "gasUsed": "0xb697",
      "effectiveGasPrice": "0x10fad6",
      "from": "0xf00e79e7c1e0276ba8e42c9cd9769735cfd7784c",
      "to": "0x7c3e30dce9e391cbb789f2851452350e0397ef78",
      "contractAddress": null
    },
    {
      "status": "0x1",
      "cumulativeGasUsed": "0x12afaef",
      "logs": [
        {
          "address": "0x7c3e30dce9e391cbb789f2851452350e0397ef78",
          "topics": [
            "0xddf252ad1be2c89b69c2b068fc378daa952ba7f163c4a11628f55a4df523b3ef",
            "0x0000000000000000000000000000000000000000000000000000000000000000",
            "0x00000000000000000000000005a644d6d9bbd85861ff927245aac13bd56e6d57"
          ],
          "data": "0x000000000000000000000000000000000000000000000000016345785d8a0000",
          "blockHash": "0x12e50166746074646106e5f541b7ef0ea897f4ccad0d1e26242b41a3acd955ee",
          "blockNumber": "0x92b8ae",
          "blockTimestamp": "0x6914c0a0",
          "transactionHash": "0x1f1b92d19f0e0d0c7da493e26927cf98af865beea85e9ec9b87c12a391206fd7",
          "transactionIndex": "0x4a",
          "logIndex": "0x66",
          "removed": false
        },
        {
          "address": "0x7c3e30dce9e391cbb789f2851452350e0397ef78",
          "topics": [
            "0xddf252ad1be2c89b69c2b068fc378daa952ba7f163c4a11628f55a4df523b3ef",
            "0x0000000000000000000000000000000000000000000000000000000000000000",
            "0x00000000000000000000000005a644d6d9bbd85861ff927245aac13bd56e6d57"
          ],
          "data": "0x0000000000000000000000000000000000000000000000000429d069189e0000",
          "blockHash": "0x12e50166746074646106e5f541b7ef0ea897f4ccad0d1e26242b41a3acd955ee",
          "blockNumber": "0x92b8ae",
          "blockTimestamp": "0x6914c0a0",
          "transactionHash": "0x1f1b92d19f0e0d0c7da493e26927cf98af865beea85e9ec9b87c12a391206fd7",
          "transactionIndex": "0x4a",
          "logIndex": "0x67",
          "removed": false
        },
        {
          "address": "0xe9b502e84d3e0a6dedb58aa61612dcb543d5eb42",
          "topics": [
            "0xddf252ad1be2c89b69c2b068fc378daa952ba7f163c4a11628f55a4df523b3ef",
            "0x0000000000000000000000000000000000000000000000000000000000000000",
            "0x000000000000000000000000f00e79e7c1e0276ba8e42c9cd9769735cfd7784c"
          ],
          "data": "0x0000000000000000000000000000000000000000000000001bc16d674ec80000",
          "blockHash": "0x12e50166746074646106e5f541b7ef0ea897f4ccad0d1e26242b41a3acd955ee",
          "blockNumber": "0x92b8ae",
          "blockTimestamp": "0x6914c0a0",
          "transactionHash": "0x1f1b92d19f0e0d0c7da493e26927cf98af865beea85e9ec9b87c12a391206fd7",
          "transactionIndex": "0x4a",
          "logIndex": "0x68",
          "removed": false
        }
      ],
      "logsBloom": "0x00000000000000000000000000008000000000000000000000000000000100000000000000000000000000000000000000000000000000000000000000000008000000000000000000000008000000000000000000000000000000000000000000000000020000000000000000000800000000000000000000000010000000000040000000040000000080000000000000000000000008000000000000000000000000000000000000000000000000000000000000000000000000000000000000000002000000000000000000000000000000000000000000000000000020000000000000000008004000000000006000000000000000010000000000000000",
      "type": "0x2",
      "transactionHash": "0x1f1b92d19f0e0d0c7da493e26927cf98af865beea85e9ec9b87c12a391206fd7",
      "transactionIndex": "0x4a",
      "blockHash": "0x12e50166746074646106e5f541b7ef0ea897f4ccad0d1e26242b41a3acd955ee",
      "blockNumber": "0x92b8ae",
      "gasUsed": "0x234f9",
      "effectiveGasPrice": "0x10fad6",
      "from": "0xf00e79e7c1e0276ba8e42c9cd9769735cfd7784c",
      "to": "0x05a644d6d9bbd85861ff927245aac13bd56e6d57",
      "contractAddress": null
    },
    {
      "status": "0x1",
      "cumulativeGasUsed": "0x12b6eba",
      "logs": [],
      "logsBloom": "0x00000000000000000000000000000000000000000000000000000000000000000000000000000000000000000000000000000000000000000000000000000000000000000000000000000000000000000000000000000000000000000000000000000000000000000000000000000000000000000000000000000000000000000000000000000000000000000000000000000000000000000000000000000000000000000000000000000000000000000000000000000000000000000000000000000000000000000000000000000000000000000000000000000000000000000000000000000000000000000000000000000000000000000000000000000000",
      "type": "0x2",
      "transactionHash": "0xda7aad82bd22d309ff6b1d623729a2f19e5ed11cc1fa4824ebd01b9dfc768b3c",
      "transactionIndex": "0x4b",
      "blockHash": "0x12e50166746074646106e5f541b7ef0ea897f4ccad0d1e26242b41a3acd955ee",
      "blockNumber": "0x92b8ae",
      "gasUsed": "0x73cb",
      "effectiveGasPrice": "0x10fad6",
      "from": "0xf00e79e7c1e0276ba8e42c9cd9769735cfd7784c",
      "to": "0x7c3e30dce9e391cbb789f2851452350e0397ef78",
      "contractAddress": null
    },
    {
      "status": "0x1",
      "cumulativeGasUsed": "0x12d56ba",
      "logs": [
        {
          "address": "0x7c3e30dce9e391cbb789f2851452350e0397ef78",
          "topics": [
            "0xddf252ad1be2c89b69c2b068fc378daa952ba7f163c4a11628f55a4df523b3ef",
            "0x0000000000000000000000000000000000000000000000000000000000000000",
            "0x00000000000000000000000005a644d6d9bbd85861ff927245aac13bd56e6d57"
          ],
          "data": "0x00000000000000000000000000000000000000000000000002c68af0bb140000",
          "blockHash": "0x12e50166746074646106e5f541b7ef0ea897f4ccad0d1e26242b41a3acd955ee",
          "blockNumber": "0x92b8ae",
          "blockTimestamp": "0x6914c0a0",
          "transactionHash": "0x6d3b93da865764cac1eb3937ae5a5f4b5b6d820a147c344a33679b9d11facbb2",
          "transactionIndex": "0x4c",
          "logIndex": "0x69",
          "removed": false
        },
        {
          "address": "0x7c3e30dce9e391cbb789f2851452350e0397ef78",
          "topics": [
            "0xddf252ad1be2c89b69c2b068fc378daa952ba7f163c4a11628f55a4df523b3ef",
            "0x0000000000000000000000000000000000000000000000000000000000000000",
            "0x00000000000000000000000005a644d6d9bbd85861ff927245aac13bd56e6d57"
          ],
          "data": "0x0000000000000000000000000000000000000000000000000853a0d2313c0000",
          "blockHash": "0x12e50166746074646106e5f541b7ef0ea897f4ccad0d1e26242b41a3acd955ee",
          "blockNumber": "0x92b8ae",
          "blockTimestamp": "0x6914c0a0",
          "transactionHash": "0x6d3b93da865764cac1eb3937ae5a5f4b5b6d820a147c344a33679b9d11facbb2",
          "transactionIndex": "0x4c",
          "logIndex": "0x6a",
          "removed": false
        },
        {
          "address": "0xe9b502e84d3e0a6dedb58aa61612dcb543d5eb42",
          "topics": [
            "0xddf252ad1be2c89b69c2b068fc378daa952ba7f163c4a11628f55a4df523b3ef",
            "0x0000000000000000000000000000000000000000000000000000000000000000",
            "0x000000000000000000000000f00e79e7c1e0276ba8e42c9cd9769735cfd7784c"
          ],
          "data": "0x0000000000000000000000000000000000000000000000001bc16d674ec80000",
          "blockHash": "0x12e50166746074646106e5f541b7ef0ea897f4ccad0d1e26242b41a3acd955ee",
          "blockNumber": "0x92b8ae",
          "blockTimestamp": "0x6914c0a0",
          "transactionHash": "0x6d3b93da865764cac1eb3937ae5a5f4b5b6d820a147c344a33679b9d11facbb2",
          "transactionIndex": "0x4c",
          "logIndex": "0x6b",
          "removed": false
        }
      ],
      "logsBloom": "0x00000000000000000000000000008000000000000000000000000000000100000000000000000000000000000000000000000000000000000000000000000008000000000000000000000008000000000000000000000000000000000000000000000000020000000000000000000800000000000000000000000010000000000040000000040000000080000000000000000000000008000000000000000000000000000000000000000000000000000000000000000000000000000000000000000002000000000000000000000000000000000000000000000000000020000000000000000008004000000000006000000000000000010000000000000000",
      "type": "0x2",
      "transactionHash": "0x6d3b93da865764cac1eb3937ae5a5f4b5b6d820a147c344a33679b9d11facbb2",
      "transactionIndex": "0x4c",
      "blockHash": "0x12e50166746074646106e5f541b7ef0ea897f4ccad0d1e26242b41a3acd955ee",
      "blockNumber": "0x92b8ae",
      "gasUsed": "0x1e800",
      "effectiveGasPrice": "0x10fad6",
      "from": "0xf00e79e7c1e0276ba8e42c9cd9769735cfd7784c",
      "to": "0x05a644d6d9bbd85861ff927245aac13bd56e6d57",
      "contractAddress": null
    }
  ],
  "libraries": [],
  "pending": [],
  "returns": {},
  "timestamp": 1762967713368,
  "chain": 11155111,
  "commit": "7b5d216"
}